:0200000407FCF7
:10000000084FFC07C101FC07C901FC07E101FC071F
:1000100000000000000000000000000000000000E0
:10002000000000000000000000000000F901FC07D3
:100030000000000000000000FB01FC07FD01FC07C0
:10004000D11CFC070F1DFC07A526F0079D1AFC0715
:100050008D18FC07FF01FC077117FC07FF01FC0767
:10006000FF01FC07FF01FC07C713FC07CB13FC07CC
:10007000CF13FC07D313FC07D713FC07FF01FC07C2
:100080001114FC07FF01FC07FF01FC07FF01FC073F
:10009000FF01FC07FF01FC07FF01FC07FF01FC0754
:0800A000000000008E070E00B5
:0200000407FCF7
:100110000448854603F0E4FD004800475D03FC0702
:10012000C046C046084FFC0710B520480189C908E1
:10013000C9000181008A1E4CC00715D0608A800763
:10014000800F012810D91B481949428820310A81A3
:1001500082888A80C2880A80618AFF228132008870
:100160009143C001014361821349062008800F209A
:1001700000F00EF8012000F00BF8002000F008F865
:1001800060890421884360810020208062B610BD10
:10019000002809DBC106C90E012088400749086014
:1001A000BFF34F8FBFF36F8F704700000003005005
:1001B00000000050A000FC070034005080E100E087
:1001C0000F4880470F48004704207146084203D07B
:1001D000EFF309800C490847EFF308800A49084704
:1001E00004207146084203D0EFF30980074908470D
:1001F000EFF3088005490847FEE7FEE7FEE7FEE764
:100200002901FC071101FC079D02FC071102FC07F4
:1002100010B504461E484089C00508D51B2000F0D3
:1002200093FF1B48603001880122114301800522A1
:1002300012071088518A0007800FFF2381339943EA
:10024000C00101435182134920680860606848601A
:10025000A0688860E068C8602069086160694861DA
:10026000A0698861E069C8610C620B48836A4B62CF
:10027000C36A8B62036BCB62C36B0B63436B4B63D1
:10028000806B8863908AC00601D500BE10BDFEE772
:10029000200000500090FC0700ED00E070B505253F
:1002A00004462D07288A04210843288228894021F2
:1002B0000843288124480126066024490820088034
:1002C00023484089C00507D51B2000F03DFF20488A
:1002D00060300188314301802888698A0007800FD7
:1002E000FF2281329143C00101436982194920688C
:1002F000086160684861A0688861E068C861206939
:10030000086260694862A0698862E069C8620C633B
:100310001148826A4A63C26A8A63026BCA63C26B0B
:100320000C4940310A60426B4A60806B8860A88A41
:10033000C00608D500BE688A012180088000C90374
:100340000843688270BDFEE780E200E000330050A1
:10035000200000504090FC0700ED00E008B500F0E0
:10036000BEF800F039FB01250026052424070CE027
:10037000284600F0F3F90421684600964DF7DEFBAD
:10038000002817D000F0ADFA14E02089000611D53E
:1003900001208007006B00040CD499480078C00746
:1003A00008D15DF72AF8002000F0D8F995480078C8
:1003B0000428DDD072B601F03DFD042806D00228E5
:1003C0000BD0032809D0012814D014E08E480078FF
:1003D000012801D0032000E0022000F04AF8A08AA2
:1003E000C00602D589490820088030BFA08A00F0E5
:1003F00004F800E030BF62B6C7E710B500F07EF940
:10040000834902280CD105200007408AC005820FCD
:10041000804802800A8942808A8882800A88C28055
:1004200048896021C00500280ADB794860300088CF
:10043000C00705D0764A2032508A88432030508247
:10044000754882888A43203282807448C0780028A8
:1004500007D07348006801898AB2416803205CF7BD
:100460002DF902F0A2FF6F48016904229143016156
:1004700010BD38B56946052408702407218A054651
:1004800004221143218200F063F86148418960220F
:10049000C905002905DB5E4B2033598A9143403161
:1004A00059825D498B88934340338B80022D01D064
:1004B000032D13D1818849084900818000200090D4
:1004C0000099491C00911429FADB61898908890087
:1004D000491C618161894906FCD5608038BDF0B551
:1004E0005148524905230127514A884201D31C46ED
:1004F00004E0904201D33C4600E000244D4D4E4EB6
:100500004648AD194D4E8470AD190126B6034560BD
:10051000B54201D8142500E000252540484C45701F
:100520008C4213D2474B2546EB18944205D38B429D
:1005300001D211230AE03B4608E0934201D2142382
:1005400004E08B4201D2102300E000230370F0BDD1
:10055000F8B5022801D0032848D1324A1369042192
:100560000B4313612C4A203A93895B085B0093810B
:1005700005241022294E240702287578608A36D077
:1005800010436082608A084360827068C01C8708DC
:1005900001F0EAF9608A1021084360822A487F1E30
:1005A0000762EFF31080012181F3108821888022F7
:1005B00091432180002800D0012080F31088144846
:1005C0004089C0050AD501F0BDF90B2000F0BCFD43
:1005D0000F486030018801221143018003205CF73D
:1005E00093F8002806D00120F0702583F8BD9043D1
:1005F0006082F3E70020F07030780540F5E70000F6
:1006000054BAFC07008DFC07B4BAFC070033005055
:1006100020000050A000FC0720030050C08BFC0706
:1006200058B9FC0700ED00E0C08BFC070070FC0728
:100630000040FC071001FC0768470000000004F8B8
:10064000084FFC070C0400000000F407704770B569
:100650000D46002442F753F92855641CE4B2202CBF
:10066000F8D3002070BD10B55EF734FD10BD10B595
:100670005EF739FD10BD70477047704706498842E4
:1006800000D000BE05210907488A012280088000A9
:10069000D203104348827047111111112B48017881
:1006A000002902D08021417070472949002008703C
:1006B0002849C870704725490A78002A03D00028C5
:1006C0000CD002200BE0002801D0022000E0012025
:1006D0001F4908701F490120C870704701208030F1
:1006E00048707047002805D0012804D0022804D1A2
:1006F0000120E0E7D2E70020FBE770471449002023
:100700000978002904D0012903D0022900D1022050
:100710007047012070470D48C07870470020EFF304
:100720001081012282F31088052212071289120615
:1007300005D40948028901231A4302811846002979
:1007400000D0012181F3108870470000C88BFC079E
:10075000B4BAFC0754BAFC070033005010B5FE4C85
:10076000A178002921D0FD49002803D0088840073E
:10077000FCD402E00888400717D4CA88888811048E
:100780000A180020A070F64800235043800B401C3C
:100790004008E0611F204006492162F761FEE162E6
:1007A000A06264214843000CA06110BDEB49488061
:1007B0000888032210430880088804221043088018
:1007C000E54901208870704770B505200007018950
:1007D00030229143018101898022114301810189E5
:1007E000082211430181DF490A88520852000A8019
:1007F0004389182293434381048940231C43048185
:10080000048A0425AC430482848AA407FCD5D24D13
:10081000AA246C61CD8801240F263602B5430B262D
:100820003602AD19CD80CD882543CD8044899443CF
:10083000083444814A88520852004A800189994309
:100840000181012080070168821591430160C6483B
:1008500001683F22520291434214891801600168E5
:1008600002031143016070BD10B5BB490122D203E0
:10087000C969904205D303F045FA8905800A084307
:1008800010BD4843800A10BDEEE710B5B249896932
:100890004843B649401849005EF7B4FB10BDF4E781
:1008A00070B500F0DAFB0446FFF7F9FFAA4D288186
:1008B00020463C30FFF7F3FFAD49001D88602A89D0
:1008C0001018C01DAB4A48601278022A01D11130BD
:1008D0004860FFF7D9FFA849401880B25CF71EFEB8
:1008E00070BDF0B5A54985B00120C863C86B00286C
:1008F000FCD101208007C069974C2169884201D250
:10090000002121611922411AD20191422AD320618A
:100910009B4801880391418802918788C68899493C
:1009200003C900900191684600F065FE00F03BFFAE
:100930000546012020567F280CD0281A40B20028F6
:1009400001DA404240B2082805DBE068401CE06064
:1009500001F02DFC65708A48029941808780C6802D
:100960000399018005B0F0BD0020704710B586499D
:1009700000200860FFF794FF01208007016B490009
:100980004908016310BD08B57349888075498A8894
:10099000520852008A80002200920099491C00915E
:1009A0001429FADB052109074B899B089B005B1C76
:1009B0004B814B895B06FCD54880E120C00000924A
:1009C000521C00928242FBDB4889800880004881EB
:1009D00048890006FCD508BDF8B56C480826068095
:1009E00000F0F8FB6A4CA188684601800088C04688
:1009F000C04668460088042398433ED00020A0806B
:100A00006348203001880F22920211430180554A29
:100A10002032518A31435182524960310C88062577
:100A2000AC430C800588CC0125430580558AA5433D
:100A30005582948A0E25AC43A41D9482494C658945
:100A4000EF05544D0F881DD5AF4315017D190D805D
:100A50000D880F022D052D0DED190D8005883543EC
:100A6000058005889D4305800D886D086D000D800B
:100A700001884025A943018020E0208A40084000E9
:100A80002082BDE7AF4303256D027D190D800D88DF
:100A90000F273F033D430D800588B543058005883A
:100AA0009D430580958A03267602B54395820D887D
:100AB000012635430D8061894907FCD5018803254E
:100AC00029430180558A60218D43203555828288D3
:100AD0008A432032828001201F4E052530702D0769
:100AE000E88AC02188438030E882208A000A000218
:100AF0002082208B1C2188430830208326480380D5
:100B0000A8880121C9028843A880480123490860B8
:100B100000F02AFF022000F0ECFE214C2069C0B258
:100B2000AA286AD0012029880C2291438000014321
:100B300029800948203000F0B9FA00F01BF900F0D4
:100B400089FA00285BD000F085FAFFF71CFF7F20B0
:100B50007070A06A064925E0D08BFC070016005093
:100B600011110100200000500002004020A10700E8
:100B70007848FC07B4BAFC07E2040000C00000405B
:100B800000150050D03FFC07A8B9FC070033005007
:100B900000030050000F00000002005080E200E05F
:100BA000C07FF807086000F00FFF00F035F802F092
:100BB000FCFB012041F7A9FEFFF706FE1448006880
:100BC00041F748FB13490020C870087101208007D5
:100BD000016882151143016000F0ECFF1E20FFF751
:100BE000E5FD0120FFF7BAFDFFF758FD02F05CF8C4
:100BF00002F02DFDFFF7BAFEF8BD032093E7206950
:100C0000C0B2AA2801D06E209FE780209DE7000097
:100C10004CB9FC0754BAFC0770B53548334D006831
:100C200034492C6892B0884205D0052252023249DC
:100C300032485EF761FA324E324930465EF775FA55
:100C40000721314809025EF770FA2C6003F02CF896
:100C50002F492E4808602F480024048030222E4956
:100C60002E485EF749FA294908228868C968119117
:100C7000109010A92A485EF73FFA2449402210310B
:100C800068465EF739FA4022694626485EF734FA2C
:100C900025482749047025480860274925480860E9
:100CA00027492648086027490A200870264827490E
:100CB000047032200870264905200860254A012169
:100CC000116025490860254906200860244907204D
:100CD0000860244908200860FF2023490730086085
:100CE000224908602248066012B070BD5CBAFC0759
:100CF0009CB8FC076587341200B0FC074C8EFC07DB
:100D000000A0FC07AC14000000B9FC07D83FFC07AA
:100D100060BAFC07008CFC077CFCF10700BAFC07FA
:100D2000DAB9FC07B0BCFC07FDB9FC07603FF2076D
:100D300050B9FC07683DFC0754B9FC07E43EFC07CA
:100D400058B9FC07B0B9FC07B1B9FC07D9B9FC0721
:100D50005CB9FC0760B9FC0764B9FC0768B9FC071B
:100D60006CB9FC0770B9FC0748B9FC0744B9FC072B
:100D70004CB9FC07F0B5C14C89B0002020766076F4
:100D80000390BF480169BF48814202D0C01709B033
:100D9000F0BDBB4F0425403FE819016D0191090FDB
:100DA000092910D001220198920790427AD3B64ABD
:100DB000904277D8B5490835884274D1E819C16C9A
:100DC000B3484180A6E0019A01991204C9B2160EF7
:100DD000112935D007DC0B005EF7E2F90874747452
:100DE0007474740D1F7412390B005EF7D9F9063A4A
:100DF0004B5D6B60656B207EB200C1009F48403840
:100E000008189F49143169185EF776F9207E801919
:100E1000C0B22076042854D854E0607EB200C100ED
:100E200096484038081896491030143169185EF712
:100E300063F9607E8019C0B260760C2841D841E029
:100E4000416D89B20291406D000C014604900298F8
:100E500000F006F9A0800499029800F009F9E080FA
:100E600030E0416D89B20491406D000C0146029062
:100E7000049800F0F5F820810299049800F0F8F841
:100E800060811FE0039805A9800040187C49B200EA
:100E9000143169185EF730F903988019039002281D
:100EA0000FD80FE02BE010E0406D60820AE0416D4A
:100EB00072484038016405E0406D0004000CA082D7
:100EC00000D100BEB00045194AE070492639884279
:100ED00003D1E819C06CE0821CE06C49091F88420C
:100EE00004D1E819C06C6A49888013E06749083961
:100EF00088420FD1E819C06C6549C8800AE007290B
:100F00002ED008292CD00A292AD0062928D0401C06
:100F100007D000BE5A48103029185E48814200D2DE
:100F20003AE70598A0810698050C86B22946304616
:100F300000F096F8E0812946304600F099F82082CA
:100F4000207EC10700D000BE40082076607EC10729
:100F500000D000BE40086076A18A002902D004E0DB
:100F60002D1DD7E77D21C900A182042800D000BE35
:100F700000200CE7F8B5414C0025403C3F4F24E0F1
:100F8000EE00A059444988421AD1301900904068B7
:100F9000800A400414D001F0EFFB092810D9009812
:100FA000032240681202014609041040890E0843DA
:100FB000A1590860009839494068C001C00D02E09D
:100FC00030194068A15908606D1C387EA842D7DCF2
:100FD000F8BDF8B5294C0025403C2746403717E0BE
:100FE000E80006192E48316981420DD101F0C4FB99
:100FF000092809D92B4970690840284909884904FA
:1010000008433169086002E03069716901606D1C54
:10101000787EA842E4DCF8BD18490420085E7047D9
:1010200016490620085E704714490820085E70477C
:1010300012490A20085E70471048808970470F499E
:101040000E20085E70470D491020085E70470B485F
:10105000408A70470948C08A70470848808A7047AC
:10106000081A0104890C40180F49401800B2704753
:10107000C2008018401A0004C0147047448CFC075A
:10108000C07EF807A5A5A5A54C4200502800005039
:10109000A000FC07C07FF8074C1000408448FC0704
:1010A00038300040FFFF01FC0100FFFF10B50622B1
:1010B00001495EF721F810BDD47FF807052000072D
:1010C00001883022114301800188032211430180ED
:1010D0007047052000070188302291430180018874
:1010E000890889000180704736490A8B03231B0257
:1010F0009A43000202430A83704733498A8A0323D2
:101100005B029A43C3085B021A438A828A8A0723D6
:10111000DB0240079A43800C02438A822A4840300F
:10112000018801221143018027482038418949075D
:10113000FCD570472448818A808A4905890F80043C
:10114000400FC900081870471F498A8A03235B02B1
:101150009A43C3085B021A438A828A8A0723DB0206
:1011600040079A43800C02438A82704710B50446B8
:10117000154820384089C00502D40120C04310BD65
:1011800000F0DDFB002806D0FFF7D4FFA04202D913
:101190000020C04310BD0C48408AC00408D40B484E
:1011A0000088000704D4082C02D20420C04310BDDC
:1011B00007480121047041702046FFF79EFF002080
:1011C00010BD0000203000504000005020030050AF
:1011D0008848FC07F0B585B00026884C0296029836
:1011E0003021484300960019009989004650009923
:1011F000491C00910C29F7DB0298401C0290012841
:10120000EDDB02F07FF87D4D0021083D296069602B
:101210000127029600200090029979484900465A19
:1012200000993846884080B206421DD0029830218D
:1012300048430099001989004058411C1BD00028E0
:101240000DD0C117009A5DF79BFF029A12015DF75E
:1012500097FF2A686B6810431943286069600098FB
:10126000401C00900C28DBDB0298401C02900128F7
:10127000D0DB05B0F0BD00BEE3E7F8B51646054685
:101280000C460A461F46012000215DF779FF2A011E
:101290005DF776FF594B083B1A685B6810401940B0
:1012A000084300D100BE6801564940186100081883
:1012B0003E43C680F8BD70B505460C460A4601207F
:1012C00000215DF75DFF2A015DF75AFF4B4A083A9E
:1012D0001368526818401140084300D100BE6801ED
:1012E000484940180121A140818070BD70B5054674
:1012F0000C460A46012000215DF742FF2A015DF7F6
:101300003FFF3E4A083A13685268184011400843AC
:1013100000D100BE68013B4940180121A140418035
:1013200070BDFFB581B00C4605460A461F46012038
:1013300000210A9E5DF724FF2A015DF721FF2F4B54
:10134000083B1A685B6810401940084300D100BE92
:10135000002E2146284602D0FFF7C8FF01E0FFF724
:10136000AAFF3B4621462846039AFFF786FF80E7FF
:1013700070B5012421460A3881400D4688B200F03C
:101380002CF884402048C189A9430C43C48170BD16
:1013900010B504460A3804280BD82046FFF7E8FFAA
:1013A0001649A000303140188038806D002801D0E7
:1013B000804710BD002CFCDBE106C90E01208840EF
:1013C0001249086010BD0A20E2E70B20E0E70C207C
:1013D000DEE70D20DCE70E20DAE700280BD0411E07
:1013E0004840C003010C002002E04908401C80B2C4
:1013F0000029FAD17047102070470000688CFC0764
:101400002840FC07003000500014005080E200E04B
:1014100010B5FFF75EFE05221207908820490005EF
:1014200004D5204B1C880520A04311D09088C3060A
:101430001D481FD58388DB071CD003881B0619D5E0
:1014400001228280028880239A430280486822E039
:10145000188804221043188018884008400018801B
:101460000C68002C05D00220185E995E0A229A5E54
:10147000A04710BD9288D206FBD582889207F8D586
:101480000288D205F5D5022282800288FF2301332B
:101490009A43028088680028EBD0804710BD000086
:1014A000AC8CFC070002005000010050EF4801889E
:1014B00001221203914301807047EC480188012208
:1014C000120311430180642000BF401EFCD170470D
:1014D000E649CA88D208D2000243CA807047E3496D
:1014E000CA8870239A4300010243CA807047F8B546
:1014F000050049D0DD4C297820884022904389019D
:10150000084320806878FFF7EAFF2878002803D195
:1015100068780009FFF7DCFFE878042601282088B6
:1015200033D0B04320802879A1880002C9B201439A
:10153000A180E08801274006400F7F02042826D0C2
:10154000FFF7B4FFA8780F2800D900BE61880F22EA
:1015500052029143400201436180687961888908A1
:10156000890001436180A879012820883BD0B843D5
:101570002080E879072800D900BE6188FF22C132A7
:101580009143800101436180F8BD3043CAE7FFF712
:101590005EFDB7490028088001D1B6480880FFF7F2
:1015A0008CFF2088384320802188402081430143DC
:1015B00021806088304360806088C004C00C6080F7
:1015C00060880F2149028843084360806088FF21BA
:1015D000C1318843FF2181310843608060888008E1
:1015E00080006080F8BD3843C2E7A048018801222E
:1015F00011430180704770B505469C4C0020208047
:101600002120000160804020A080FFF715FDA0810F
:10161000A189702081434031A181062000F0E3F8C8
:101620002846FFF764FFFFF7E0FF70BD8F48018891
:1016300049084900018070478C4801880222114303
:101640000180704700B5FFF7F7FF884801888907D8
:10165000C90FFBD10121C181008A00BDF8B5834CBF
:1016600005466088000700D500BE20880090678886
:101670000020FFF7C0FF6088042108436080608875
:101680000F214902012388435B02184360802088B0
:10169000984320806188FF20C130814301436180ED
:1016A000208840218843A901084320802089800A9E
:1016B0008002184320816089800A8002184360817B
:1016C0002088802108432080218858108143218070
:1016D000FFF7B8FF8009FF38FF38023886B220884C
:1016E000FF21013108432080FFF7ACFF8009FF385C
:1016F000FF38023880B2012D23D0991B012589B211
:10170000AD02A94200D300BE2289920A92020A4386
:101710002281181A80B2A84200D300BE6189890ACA
:101720008902014361812188FF20013081432180AA
:10173000FFF788FF8009984212D9FF38FF38023836
:101740000FE07100591A012589B2AD02A94200D3F8
:1017500000BE2289920A92020A4322814000D8E701
:10176000181A082800D300BE009820806780F8BDB2
:101770003E490120C88140480068002800D0004749
:10178000704710B500F03CF838494A88D205520F2E
:10179000062A01D9062102E04988C905490F062217
:1017A000511AC84010BD10B5FFF746FF2F480188F9
:1017B0008907C90FFBD10121C181008A2C4A2F4919
:1017C0001288801A7D22D2005043002801DD4A1081
:1017D00002E0002801DA2A4A80185DF729FC80110E
:1017E000193040B210BD002809DBC106C90E012026
:1017F000884024490860BFF34F8FBFF36F8F704755
:10180000F8B5054619484188090705D5FFF717FCC3
:101810000646FFF718FC0FE000888009C007C00FDC
:1018200005D0FFF7F9FB0646FFF7FAFB04E0FFF7E8
:10183000FBFB0646FFF7FCFB04462804401B124D49
:1018400071190E465DF7DEFB07462004001B31468A
:101850005DF7EEFB391A6800814201D90020F8BD1E
:1018600028468142FBD888B2F8BD00000015005020
:101870008A48FC0740760000B88CFC07AA050000E7
:101880002BFDFFFF80E100E0FFFF000010B50A48DC
:1018900080890A49C96A002901D0884710BD0420FF
:1018A00000F001F810BD002805DBC106C90E0120BB
:1018B0008840034908607047201300508C48FC079B
:1018C00080E200E010B50446FFF734FCA04202D2EB
:1018D0002046FFF739FC58480188C90708D101881C
:1018E0000122114301805448603841894907FCD5E1
:1018F00010BD38B5514C054620684107490F684670
:1019000001700078854219D04B4860384089C00585
:101910000CD5A81E03005DF743FC0504060404046F
:1019200009000B2000E01320FFF7CCFF2068C0085F
:10193000C0002843206060684007FCD538BD40489F
:10194000007870473E49002008707047052109075C
:101950000988090600D400BE80003A490958374872
:10196000016139494161704710B5EFF310840120DE
:1019700080F31088304860384089C0050BD5304965
:1019800001200870FFF7D6FB304908702A4800880C
:10199000C007C00F4870052000070188802211434E
:1019A000018026480168C908C900016041684907EB
:1019B000FCD50320FFF7CAFF002C03D0012080F3E1
:1019C000108810BD0020FAE770B5EFF310840120F5
:1019D00080F31088052109070888802210430880B9
:1019E00016480368DB08DB00036043685B07FCD52F
:1019F000174B0361144B43610888904308800E48DD
:101A000060384089C0050ED50D4900200F4D087083
:101A10002878FFF799FB6878002804D106480188E8
:101A2000490849000180002C03D0012080F3108870
:101A300070BD0020FAE70000800000500000F407AD
:101A4000BC8CFC072C40FC07090404A48848FC0754
:101A50000F009909544930B4884201D0012100E0B7
:101A60000021524A4901891808E0838ADB07DB0F0D
:101A700012D00388541C8D68CC81AB54CA898B89E1
:101A80009A42F2D382885208520082808A69002AE0
:101A900002D0C88930BC104730BC704710B54448EC
:101AA00000F001F810BDF8B53F4D404E04462089C6
:101AB0000007000F062826D009DC012840D00228A4
:101AC0001DD00428F3D12046FFF7C4FFEFE7072815
:101AD00028D00C28EBD1AC4201D0012000E000203E
:101AE000400187192046FFF7B5FFA1884908490042
:101AF000A180B9690029DAD0F8898847D7E720465C
:101B000000F01FF8D3E72046AC4201D0012100E0ED
:101B10000021490189190A69002AC8D0818A9E23B7
:101B200019400BE02046AC4201D0012100E0002129
:101B3000490189190A69002AB9D001219047B6E7FD
:101B4000F8BD194930B4884201D0012100E00021DC
:101B5000164A490189180EE003891B069B0F032BC7
:101B60001BD0838A9B06DB0F002B95D0531C0C687F
:101B7000CB80A25C0280CA888B889A42ECD3828890
:101B800002239A438280828880239A4382804A6912
:101B9000002A81D0888830BC10477C231B5A9B07C1
:101BA000DB0FE1E778E7000000100050C08CFC0775
:101BB00000110050F8B51D481B4D0068A84231D0F7
:101BC000FF26C136012130465AF706FE0446184862
:101BD000016818480A0A017042700A0C8270090EE6
:101BE000C1700022A35CFF21C0319F07891ABF0F7B
:101BF000615CC75D79405940A154521CB242F1D397
:101C00000C481C222146001D5FF70AFA002800D06C
:101C100000BE20465AF75BFE0648406840F775FE56
:101C200002480560F8BD0000658734129CB8FC07C7
:101C30007848FC07BC48FC07F8B50125AD07AC6B3C
:101C40002046FEF721FE6949694F4A688618002040
:101C50004860394630465DF7D5F9664948603A46EE
:101C60005043301A00D0381A80B20860286B08211F
:101C7000884308432863604804606048006800287F
:101C800002D0A04200D200BEF8BD10B5FFF721FA85
:101C9000052000074189890703D041898908890007
:101CA00041810189802211430181018A04229143EB
:101CB0000182818A8907FCD500F0B4F801208007F1
:101CC0000169490700D500BE01694907FCD510BD6F
:101CD00010B54B4C08202080FFF7F0F92089400711
:101CE000FCD4FFF7F6F9474805210088090748802A
:101CF0004548464C0088801E608007202080FFF702
:101D0000DDF920884007FCD4FFF7BFFF10BDF8B510
:101D10003F480168C90703D00168022211430160EE
:101D20000168490204D5016801229205114301604E
:101D300001272E4EBD072C69002C55D0200606D554
:101D40008020A8614BF7A3FD1E20FEF72FFDA00702
:101D500003D50220A86147F798FC200708D5082082
:101D6000A861002047F74AFC0420307000F0FBFC1B
:101D7000E00505D5FF200130A861012047F73EFCB2
:101D8000A00504D501204002A8614BF7E9FD6006DB
:101D900003D54020A86147F72CFCE00603D51020AE
:101DA000A86145F7E9FF60070FD50420A861144832
:101DB00001894908490001815BF786FB40F740FC37
:101DC0001E20FEF7F3FC00203070E00706D0012053
:101DD000A8615BF795FB4BF75AFD3770A006AAD5B3
:101DE0002020A86100BEA6E7F8BD0000008DFC071A
:101DF0007102000040000040108DFC07088DFC07B8
:101E000000330050D48BFC07D88BFC070016005021
:101E10000002004010B540F758FA674880686749EB
:101E2000486010BD10B540F77CFA644862494068CC
:101E3000886010BDF8B5002500F0B9F800270090C3
:101E4000FEF769FC01465E4E0020002902D131797F
:101E5000022900D100905B490989C9070DD15AF7C1
:101E600098FB002809D0F0780125002805D005202E
:101E70000007808AC00701D0042596E0308800283A
:101E80007DD1FEF748FC002806D14F48806A002823
:101E900002D000F08CF80090FEF702FDB1786846A1
:101EA0005BF76FF900286AD00124A4072069400677
:101EB0007BD44348817868464BF740FE002874D0B5
:101EC0000120FFF711F90099002906D0206AFF3898
:101ED0003938DA2801D8491E00913C4802883C482C
:101EE000016850183B4A1060E26B920A92020A4362
:101EF000E263E16B384A1140384A1668B202114376
:101F0000E163E16BC902C90A40050143E163344A58
:101F1000009804250021904200D300BE314B0CCB29
:101F20005DF79AF80903000D0843244A401E711C0E
:101F30001060884200D1166021480079002801D045
:101F4000012100E00021106847F70EFD2648C06A15
:101F50008047FEF709FD002802D0FFF7AFF8012700
:101F6000154E206B0004C00FFBD03068C005FCD5B7
:101F700030688024A0433060002F03D000E014E0DC
:101F8000FFF7A7F80F494889462804D24622174B85
:101F9000101A18604A81FFF73DFF30680006FCD533
:101FA000052000070189A14301812846F8BD10489A
:101FB0000068806A7047000000020040088DFC073E
:101FC00054BAFC070033005074BEFC07D88BFC07E2
:101FD0008048FC07D048FC07FF03E0FF7C48FC0773
:101FE00040420F00F88BFC0758BFFC07048DFC072C
:101FF00058B9FC07002070477047704710B5282873
:1020000001D2282002E0E62800D9E620FF21F331A2
:1020100048437D21C9005CF7F5FF8130C0B210BD97
:102020007047704710B5022902D0012900D000BEC8
:10203000002802D0FF2802D000BE022902D000F002
:102040009BFB10BD0C2010BD01218907086B0722E6
:10205000104308638C480168021391430160704784
:1020600010B50220FFF740F887480168020391434A
:102070000160864800214163416B1F221204914395
:1020800042138918416301060868F0229043E0304A
:10209000086010BD10B58AB07D4941627D498162FA
:1020A0007D494161002430210C547C49C1627C4946
:1020B00001607C4901627C4941607C49C16100F05A
:1020C0003EFB7248416B1F22120491434213891850
:1020D00041636D480168C21291430160684604552E
:1020E000641CE4B2282CFAD3014671482822006807
:1020F00040305DF701F8092000F03BFB00F03FFBAA
:10210000002802D0012000F034FB00F019FBFEF79C
:1021100031FFFEF75EFF00F0D5F800F058F8FFF74A
:102120009FFF00F00BFB00F083F800F01CFB0AB0EF
:1021300010BD10B55548416B1F2212049143421344
:102140008918416300060168C908C90001600520BB
:102150000007018908221143018100F010FB0028CB
:1021600002D0012000F005FB00F0EAFAFEF702FFC2
:10217000FEF72FFF00F0A6F800F029F8FFF770FF38
:1021800000F035F800F0EFFA10BD10B504467022EB
:10219000484949485CF7B0FF47484830011B46486A
:1021A0001038018344495C31091B418310BD10B5CF
:1021B00000F0C6FAFEF70DFF00F084F800F007F813
:1021C00000F0BCFA00F023F800F0CDFA10BD2F4B60
:1021D00010B540331868394C0102090EC2B20A31F9
:1021E00009040A32204011430143196010BD344AEA
:1021F000118B3148103083691B0C1B040B43836126
:10220000518BC269120C12040A43C26170472C4AF6
:10221000203A118B28481030C3681B0C1B040B4359
:10222000C360518B0269120C12040A4302617047A9
:1022300010B5FFF7ECFFFFF7DAFF21482038018ADD
:102240001D4810308268120C12040A4382601C4A36
:1022500040329188036A1B0C1B040B430362D18834
:10226000426A120C12040A43426215494A88836A80
:102270001B0C1B04134383628988C26A120C12046C
:102280000A43C26210BD000000020040400000404E
:10229000F51FFC07F91FFC072520FC074920FC0758
:1022A000FB1FFC072120FC072320FC07FD1FFC0768
:1022B0004CB9FC074840FC0770A0FC0700FF00FF7A
:1022C00020300040F0B5FE48406B7F210902884372
:1022D0000B2109024018FA494863086AF94980B29B
:1022E0004018F7490862886BF749012208405203F9
:1022F000F34980188863F2484030016903231B02C8
:1023000019430161818B102421438183EC482030E3
:102310008188012421438180ED49EC480860ED4C1F
:1023200020883F21090188432F210901401820807E
:10233000E84820388169E84D490D4905491981610E
:10234000C169E64D294009256D024919C1614168FD
:10235000E34D2940E34D491941608168E24D294030
:10236000E24D49198160C168E14D2940E14D4919AB
:10237000C1600169E04D2940E04D49190161E04922
:10238000C514097809064919C1256D012943DD4D98
:1023900029600525DC49AD020D816D1D8D81DA496D
:1023A00020310D892D0A2D0255350D818D25AD0069
:1023B0000D82D64D8D82D64D0D83D44D0E3D8D832D
:1023C000D349D14DC91D40352980D249A181C16B66
:1023D000D14C2140D14C0919C163FF20D04C6C3045
:1023E0002080CF482030068B1F2149010B258E43CA
:1023F000AD0176190683CA484030868809278E4386
:10240000BF01F6198680068915278E437F01F619CC
:10241000068186898E4371198181FF208D30A080CD
:10242000BF4880300189E024A14319430181818B99
:102430004909490119318183B2482030818B5B0100
:10244000994389188183AF4880300168C908C90061
:10245000C91C0160AB49B34840314862F0BDA9498D
:1024600008B500208031C8620090401C0090FF2811
:10247000FBDDAD480078AA49C006820D4031C8682E
:102480001F235B0198431043C86008BDA7488C49CF
:102490000068403108608A488169890989011C31D6
:1024A00081618169C21391438161016B3F221206F0
:1024B00091430722920689180163016B3F22920122
:1024C00091430F22D20189180163016B89098901A7
:1024D0001E31016370477A48C16949084900C161EA
:1024E00070478F4808B54030C1688F4A8905C90ECA
:1024F0001170C1681F2252019143C16081490120BE
:10250000887180488030C16A03221143C162002073
:102510000090401C0090FF28FBDD08BD08B57949FC
:102520000220887100200090401C00900B28FBDBEB
:1025300008BD634841210177C169032252029143DA
:1025400002158918C16170475D4840300168774ABB
:1025500011600021C94301605948816989098901D5
:1025600081618169C21391438161C1690322520271
:1025700091430315C918C161C16970239943403162
:10258000C161016B3F231B0699430B235B06C918EE
:102590000163016B3F239B01994389180163016B20
:1025A00089098901183101637047F8B55548032737
:1025B0004771434C6068C009C00114306060FFF788
:1025C000C3FF43202077FFF7A9FFFFF78AFF00250D
:1025D000261500950098401C0090B042FADB49494E
:1025E00003204871364880308068C705FF0DFFF72B
:1025F00036FF00950098401C00901028FADBA06977
:102600004002400AF9050843A061A0694849084012
:10261000B9010843A061FFF78CFFFFF77FFFFFF7C9
:1026200060FF00950098401C0090B042FADB3549ED
:1026300003204871224880308068C705FF0DFFF7EE
:102640000EFF00950098401C00901028FADBA0694E
:102650004002400AF9050843A061A06934490840D6
:10266000B9010843A061FFF764FFFFF757FFFFF7C9
:1026700038FF00950098401C0090B042FADB2149D9
:10268000032048710E4880308068C605A069F60DA9
:102690004002400AF1050843A061A06924490840AE
:1026A000B1010843A061FFF716FFFFF7EFFEFFF748
:1026B000D6FE00950098401C00901028FADB39E007
:1026C0000030004000008888FF00FEFF59055C07CD
:1026D000800000402020004009581A00FEE1FFFF62
:1026E000E0E000000809294900000303696A686CFA
:1026F000031FFFFF70600000E0E0E0E00B0A0A0843
:10270000148DFC070010004020130040340A000024
:1027100051080000070F00002F64E0FE101A0601A8
:1027200000120040500150017448FC07D448FC07D7
:102730003F80FFFF134846810120F8BD35E7704711
:1027400008B511480821017100210091009A521C1E
:102750000092102AFADB0091491C00911029FBDB42
:102760000321417108BD0848022181710021818047
:10277000704706490870704704480078704703485E
:1027800040787047D848FC0700100040148DFC07C3
:10279000FFB585B00C46FD205EF72AFD03900027AB
:1027A0006846077008986946060A20885FF74CFE5D
:1027B00005466088002800D000BE002D6AD1FD20AB
:1027C00000F064FD694609781423594342680B1DE3
:1027D000D35C022B21D15158354A098891421CD132
:1027E0000197029720885FF7CAFD002800D100BE3C
:1027F00001AB002204A94EF7B7FB049821468005DF
:10280000C00F5FF7A7FD05062D0E43D1684601787E
:10281000E28830465FF779FF21E000280BD080691D
:102820008446002807D06846A2886188A31D0078E6
:102830006546A847054601970297208801A94EF7EB
:102840000EF9002D26D101980089C00B07D16288AE
:10285000A1882088A31D4EF76CF9051E1AD13146B8
:1028600003985EF7E3FC0146A088079A801D83B2B7
:1028700010485AF7BFF80746A288A11D801D5CF7D3
:102880003BFC684600787880A088B8803E70384667
:102890005AF7CBF804230848079A08995AF7AAF878
:1028A0002188018085705AF7C0F8002009B0F0BD7A
:1028B000022900000AFD0000160C0000F8B50025F2
:1028C000244CFF272E46002813D1284610302661BD
:1028D000A082E7826660A660E681A681C0B221463A
:1028E00026605AF786FA6D1CEDB21834022DECD32F
:1028F000F8BDE08A5EF702FD002802D0416820465C
:102900008847E7826660A660E681207D5AF7CBFAA9
:102910006D1CEDB21834022DEBD3F8BDF1B50D4DA1
:102920000D4F00242E46E88AFD2803D1182060436D
:1029300080194760E88A5EF7E1FC002803D08268CE
:10294000284600999047641CE4B21835022CEAD35B
:10295000F8BD00001C8DFC071041FC0710B500F00D
:1029600007FB60F7C5FE0120FDF7BCFE10BD0C2182
:10297000314A10B5414389188978FF2902D000F007
:10298000C1F810BD00F07EFE10BD10B560F798FDD7
:10299000002801D000F076FE10BD10B500F072FEE8
:1029A00010BD10B525490A780270401C491C5CF71F
:1029B000A3FB10BD2149498C01807047082101808B
:1029C00010214180002181807D21C180704770B538
:1029D0000C4601780025194B002904D0012909D0A3
:1029E0004820207070BD8278011D1A70581C5CF759
:1029F00083FB01E040885884257070BD0120087079
:102A0000002048808880704770B50446407980096E
:102A100011D13FF774FF014620700A0A62700A0C58
:102A2000A270090EE170251D3FF769FF2870000AAA
:102A3000C0210843607170BD648DFC07708DFC0778
:102A40000021BD4A05E0834201D101207047491CA5
:102A5000C9B20C234B43D35CFF2BF4D10020704749
:102A600070B5B549B54C0E460C36B54D0DE0521853
:102A70005268002A07D0C2B20C235A435118496841
:102A8000401C60702DE0401C607060780C22424356
:102A90008B5CFF2BEBD10AE089194968002903D030
:102AA000FFF7CEFF002809D02078401C2070217845
:102AB0000C204143705CFF28EED117E020780C21F8
:102AC000414389194968401C20700AE04919C968C6
:102AD000002909D0C1B21C2251434919C968401CC0
:102AE000A0708847002070BD401CA070A0781C21F9
:102AF00041436A5CFF2AE9D10020A0706070207019
:102B0000012070BDF8B5054600248B4E0AE08019FF
:102B10008168002904D0641CE4B22846884701E09B
:102B2000641CE4B220460C214843315CFF29EED1FD
:102B3000814E00240C3609E08F19B968002903D0B2
:102B4000FFF77EFF002809D0641CE4B20C2161432A
:102B5000705CFF28F0D10024794E10E0641CB96845
:102B6000E4B228468847F1E780190169002904D0BA
:102B7000641CE4B22846884701E0641CE4B22046A5
:102B80001C214843315CFF29EED1F8BDF8B56B4DEF
:102B9000E868002834D1522304220921694859F7F2
:102BA00029FF0446E8600D20207000266670664804
:102BB000A080E08007202072A6720120607216209B
:102BC000E072024620460C3060A107465CF794FA9A
:102BD000E8682B210E54C07A21462C3110301F2872
:102BE00005D8E07A0B21C2195EA3601806E02B20FD
:102BF000005D5CA3421820460B212B3060F78AFC55
:102C0000E868F8BD70B54D4E04468500361D705914
:102C1000002816D121020E23042255480A3159F703
:102C2000E9FE09210170002C00D000BE7051102176
:102C30008180082141800021C1807D220281418163
:102C40008181705970BD70B53C4EB068002829D1A3
:102C50003C482C2304220921093859F7CBFE0321D3
:102C600001700A21B0604170DC2101840025857665
:102C70000446458010210A305CF757FA2021E1769E
:102C8000A583E5833B486584C08FFB21FB2800D9E1
:102C900008463849E084403137480988814200D8E5
:102CA00008462085B06870BD3EB5002522490095D4
:102CB00001950C223431684602955CF71DFA1F48D5
:102CC0000C22183069465CF717FA1C4C0B2224348E
:102CD000227024A1601C5CF70FFA17496584243127
:102CE00004205AF786F8002104205AF7B4F83EBDB4
:102CF0004CE710B5FFF74AFF59F797FE0F49002040
:102D0000C860022104205AF7A6F810BD10B5044689
:102D1000FFF778FF59F789FE084A0020A100121D2D
:102D2000505010BD10B5FFF78EFF59F77EFE0349D6
:102D30000020886010BD00004C41FC074C8DFC0752
:102D40008442FC070D0D00004C04000003030A1828
:102D50001107595A08E4862A9E8FE911BC7C9843D2
:102D60004218000049464D2D46696265722D3700B4
:102D70000E0E0000F0BBFC074808000010B510461E
:102D80005AF77EF8002802D000BE002010BD0123B3
:102D900004220921724859F72DFE0121017059F7CB
:102DA00044FEF2E710B50C780E2C13D008DC012C91
:102DB00012D0032C16D00C2C0CD00D2C08D119E0FD
:102DC0000F2C07D0112C05D0122C03D0132C01D0BE
:102DD00000F0AAFC002010BD4878002805D1FFF7BC
:102DE000A1FFF7E74878002801D000BEF2E7FFF71F
:102DF000CCFDEFE7487800F084FCEBE7F8B51C4623
:102E000010460E465AF73CF8022802D000BE0020B9
:102E1000F8BD240A00D000BE0C2027464743514885
:102E20003D18AC70FF2C15D00121E970032104205E
:102E30005AF711F84B483188C153707A28713146DE
:102E4000681D06220A315CF757F90122002120464D
:102E500060F74AFB3146204600F026FCD7E770B504
:102E60000D784C78092D04D0002C00D000BE00F065
:102E70005BFC002070BD70B51D4610460C4659F72E
:102E8000FFFF2A0A032802D000BE002070BD0C20DC
:102E900042433448FF21101881700021C170204640
:102EA00000F033FCF1E7F0B5087800252E4C89B02E
:102EB0001F461646002804D0012817D0022827D123
:102EC00029E06846FFF76DFD6846037832463946CB
:102ED00020460A3359F78EFD04460570684602788D
:102EE000411C6280201D5CF707F92BE069460D80CC
:102EF0006846FFF75FFD0A2332463946204659F7F8
:102F000079FD0121017069460988418059F78DFDDD
:102F1000002009B0F0BD0A233946204659F76AFD62
:102F200004466846FFF74AFD022020706846008884
:102F3000608068464088A08068468088E080684657
:102F4000C08820812046E1E7FEB51C46089B0D267F
:102F5000064D6F4668C71346224660F7C9F9FEBDA5
:102F6000020D0000648DFC070B0E00008C41FC0775
:102F7000704710B50A23042209210B4859F73AFD7E
:102F800004461B202070142060F786FB607014201C
:102F900060800420A0800020E080FF217431218126
:102FA000204659F742FD10BD1B0D0000F8B50E4636
:102FB00009781846002425460B005CF7F1F809064D
:102FC00009120915150C180F1B000B241AA512E085
:102FD00007241CA50FE008241CA50CE007241EA54F
:102FE00009E00A241EA506E00D2420A503E006241E
:102FF00022A500E000BEA31C0146224859F7FAFCB6
:103000000746307838707C70002C04D02246294660
:10301000B81C5CF771F8384659F707FD0020F8BD79
:10302000FEB51C46089B0126174D6F4668C7134620
:10303000224660F75DF9FEBD4469616C6F672053FD
:10304000656D69004441313435333100123456FF27
:10305000FE9ABCDE0000000001D2008005000100E5
:10306000312E302E302E302D4C450000765F362E1E
:10307000302E31342E31313134000000FFEEDDCC02
:10308000BBAA000003140000F441FC070520000760
:103090000089000608D501208007006B000403D4D6
:1030A00003480078C00701D0002070470120704716
:1030B00054BAFC077047704770B50D460446FFF7D9
:1030C000E5FF002806D06B482A460421201859F74E
:1030D000D0FF70BDFDF722FB66480422082311468D
:1030E000801E59F787FC4560047059F79EFC70BD3F
:1030F000F8B5614C069D06190024002E26D0012E3D
:103100000CD05F4F5D4B3A46283A022E0AD05A49FE
:10311000C91E41180A2927D30120F8BD00F080F804
:10312000287039E00878461E092E0DD88000001F4F
:10313000105898422FD1B0003B5813504A68087875
:103140001146FFF7B9FF26E000BE24E04A68002AD6
:1031500002D04C48824200D300BE0878454940184E
:10316000042159F786FF16E04349891E4018C0B272
:10317000411E0929E8D88600B218803AD16F00298B
:1031800009D0994207D0404B994204D0D467F21934
:10319000803AD46788472C700020F8BD0A460100A9
:1031A00010B5384801D0814200D300BE0020344B16
:1031B000283B84001C59002C04D0401C0A28F8DB52
:1031C000002010BD84001A51401C0406240EF7D0C4
:1031D0002046FFF771FF204610BD70B50446401E23
:1031E00009281BD82648A10028380D18803DE86F13
:1031F000002813D0244EB04210D01E4804212018BD
:1032000059F781FF1B48042208231146401EEE6730
:1032100059F7F0FB047059F708FC70BD00BE70BD93
:1032200010B508780C46411E09291FD882001448A1
:10323000121F28388258144B9A4205D10022890067
:1032400042502830425012E0890040580B498842D1
:103250000DD1042208231146064859F7CBFB2178EB
:1032600001706168416059F7E0FB00E000BE00209A
:1032700010BD000003040000FFFBFFFFB730FC0798
:10328000D48DFC07FCFF3F00B530FC070021154A38
:1032900006E0834203D11C20414388187047491C33
:1032A0001C234B43D35CFF2BF3D10020704710B598
:1032B0001823042209210C4859F79CFB04461B20C3
:1032C0002070FD2060F7E8F96070FD206080042028
:1032D000A0800021E180E1602161A182204659F7B0
:1032E000A4FB10BD8442FC071B0D00003EB51D462B
:1032F000069B002400931346019402942A465FF72C
:10330000F7FF3EBD70B530480022416AD243002924
:1033100001D0114600E00121CB17CC0D5B02234305
:103320004C02416229490D684E682C4333430C60BE
:103330004B604368002B01D0134600E0012343603B
:10334000DC17DB180D6864414E682B4334430B6077
:103350004C608369002B00D101228261D017930E4B
:10336000800118430C6892014B68224318430A609D
:10337000486070BD38B5012003252D02014600903C
:103380001D232A460020FDF7CCFF002423462A46B1
:10339000092120460094FDF7C4FF00220F230621D7
:1033A00010460094FDF7BDFF38BD10B51B20FDF79A
:1033B000DDFE00F075FCFFF7DDFF05480121828985
:1033C0008A430A43828110BD688CFC07608CFC072D
:1033D0000003005008B500206A4610708A886846CD
:1033E000891D5BF789FE05200007418A0122D2036F
:1033F0001143418208BD08B50022684602708A88E0
:10340000891D5BF779FE68460078012805D0002801
:1034100002D10921FDF74FFF08BD09210020FDF76A
:1034200065FF08BD10B5887900281CD01C0AFD2056
:103430003FF7C9F9014608230422394859F7DAFA57
:103440000C214C433749384A61188978017013219F
:1034500041800221818011880B0A8371C171491C4E
:10346000118059F7E2FA10BD70477047704710B5E8
:1034700018460C4601462A480823801D59F7BAFA17
:1034800021780C225143274A891889780170618874
:10349000418000218180817159F7C7FA10BD10B5B4
:1034A00018460C4601461E480823801D59F7A2FA0B
:1034B00021780C2251431B4A891889780170618850
:1034C0004180002181800321817159F7AEFA10BD3E
:1034D00070B50D4614494888401C4880FD203FF7D0
:1034E00072F901460E480A230422C01E59F782FAD7
:1034F000044628780C2148430A4902224018807863
:10350000207068886080A28000200749A071891C13
:10351000E01D5BF7F1FD204659F787FA70BD00000A
:1035200008FD0000648DFC07FC8DFC07D0488188F5
:10353000491C89B201710A0A4271CE4A914202D1F4
:10354000002101714171704770B5C94C083CE078A9
:10355000000602D525462D3501E0C54DAD1DFFF70E
:10356000E5FFE07806224006400E4019C0495BF7AF
:10357000C3FDBF4A63792532104621791F385FF7B2
:10358000DBFFBD49BD48FFF709FE607070BD10B597
:10359000B74C083C2078FFF7B9FB0020A07010BDA5
:1035A000F0B5B5B0FD203FF70EF90146CF23042258
:1035B000B34859F71FFAB34F05460026B24803C86F
:1035C000009001916846FEF716F80120FEF746F8D4
:1035D000FEF732F8FEF736F8FEF7D3F80446FEF7AA
:1035E00025F87888C005400F062801D9062002E09A
:1035F0007888C005400F7988E1228907890F9200F9
:10360000491C51434C430A30C440710002A8761C47
:103610004452642ED2DB08206880C920A880012093
:103620006870C92202A9A81D5BF766FD284659F7F4
:10363000FCF9042059F724FC032806D193490A20F9
:10364000FFF7ACFD8A490839C88035B0F0BD70B5C8
:10365000874D0024083D8648AC7005210170FF218C
:103660004170CD218170AB21C1700471447116226B
:1036700087A1801D5BF740FD162028716C71FFF754
:103680006DF970BD10B57C497C48FFF787FD78491E
:1036900008394870FFF72CFB01230622744900F01B
:1036A000A6F8FFF726FB10BD70B50C4605460C20AA
:1036B0007D49684340186E4E8078083EFF2814D03C
:1036C00035707078FFF789FD60880838092805D2C1
:1036D000A088002802D1E0887D2808D07D20734989
:1036E000C000FFF75BFDB07001E0FFF7CBFF2146A4
:1036F0002846FFF73CF965490A20FFF74FFDF080A7
:1037000070BD442800D1BDE7704710B5584C083C47
:10371000A078002803D0FFF760FD0020A070FFF71D
:1037200005FFFFF7AFFF10BD70B5554C1D46E41CFB
:10373000031BA0421FD01FDC5D4BC3181BD05D4C88
:10374000E34218D10C4649882E294BD04C48082317
:103750002946401E59F74EF921780C225143524A0E
:1037600089188978017061884180002181808021D9
:10377000817159F75AF970BD012B08D0042BFAD189
:103780004B88172B2B462AD0FFF789FE70BD4B883C
:10379000102B1CD009DC022B11D0052B13D0092BC8
:1037A000F4D12B46FFF761FE70BD142B03D0172B0D
:1037B00011D0182BF8D12B46FFF734FE70BD2B46E5
:1037C000FFF708FE70BD2B46FFF715FE70BD2B46B8
:1037D000FFF74CFE70BD2B46FFF746FE70BDFFF7AE
:1037E00046FE70BD2B462146FFF772FE70BDFEB54A
:1037F00017460446002B01D01C2000E01F20E27A6F
:103800001B4E831A20460C30019020302546083E7E
:1038100020350090BB4209DB019810183A465BF74F
:103820006BFCE07AC019E072801F0FE0E87A1F227B
:10383000121ABA420CDB009A80183A465BF75CFC1D
:10384000E87A8021C019E872801F0843F07000E018
:1038500000BEE27A06483271801D01995BF74CFC8C
:10386000EA7A03487271253000995BF745FCFEBD8A
:10387000088EFC07FFFF00004935FC07B80B00006D
:1038800006FD0000001500508C47FC07A135FC0721
:1038900003030A181107595A08E4862A9E8FE91172
:1038A000BC7C984342180000648DFC078F35FC07F0
:1038B000EFF1FFFF0D11FFFFF8B5074601200023D0
:1038C000024600901946032045F79CFD044602215C
:1038D00080300170F64DF5482A6843881146FF3163
:1038E000F7310B8680884886F248066A0123DB069A
:1038F0009E431E430662FF320020FF323832508260
:103900009082D0821D200882EB484884EB48C88210
:10391000EB48088300204882384646F7B3F8014652
:103920002868FF30F730C28B920992010A43C283A4
:10393000E448416800208847002C02D0204645F723
:103940004AF92046F8BDFFB58BB006461698002709
:10395000022821D00D9801881498814278D371886B
:10396000084640383F2802D8159852F747F90C9876
:10397000361D0088149A80190E995BF7BDFB0C98D0
:103980000188149808180C9908800D9801881498DB
:10399000081A0D9908805CE100200E9D0790697857
:1039A0002C78090221433180E978AC78090221435F
:1039B00071808C46403904242D1D024603468E46F4
:1039C000402900D32878614604291FD0052914D046
:1039D000062918D070463F283DD8159852F70EF9A1
:1039E0000006000E04D0B848008D0006C00F30D08D
:1039F00002230120B54A002712E0697800290FD080
:103A0000B34A17230CE0B34A0F2309E0522802D02F
:103A1000D22802D002E0142000E01520AE4A1F2375
:103A2000002A1AD0984218D280001058049000281A
:103A300013D000200890059070884038402803D3A8
:103A40002878052430716D1C701D00900498B5E035
:103A5000FEE03027F0E03327EEE07088042872D1D2
:103A60000627E9E0522862D00CDC4B283FD004DC6A
:103A700041286AD0422858D111E04C2820D0502843
:103A800053D140E0632830D004DC572818D0612897
:103A90004BD19BE06C2864D0772846D109E0009890
:103AA000297801700098641C401CA4B26D1C009021
:103AB00081E00498401C04900178089881427AD1F2
:103AC0000098A41C401C41084900881C009068789C
:103AD0002A780002104308800599AD1CA4B2002981
:103AE00069D008900020059065E00120FBE71022D6
:103AF000294600985BF700FB009810341030A4B200
:103B00001035009057E020464030149903908842C9
:103B10000BD84022294600985BF7EEFA0098403017
:103B200000900398403584B245E0342743E00822F2
:103B3000294600985BF7E0FA009808340830A4B2F0
:103B40000835009037E068E0FFE706222946009834
:103B50005BF7D2FA0098A41D801DA4B2AD1D0090A1
:103B600029E01498001B80B203903088001B001DD0
:103B700081B2012007900498401C04900098401CDA
:103B80004008400000900498007857281CD0422834
:103B9000CBD100980170090A417000982946801C19
:103BA0000090039A5BF7A8FA03980399201884B24F
:103BB0000098401800900498401C04900078002859
:103BC0001ED0002F17D01BE04908E2E71498001B15
:103BD00081B200980391401C4008400000900120F1
:103BE0000A460790294600985BF786FA0399601801
:103BF00084B20098DDE70D990988A14200D331E72E
:103C00000D980088A04208D304990978002904D1AE
:103C10000799002903D1A04201D034270CE00D9967
:103C2000001B08800C9801880098801B001F081852
:103C30000C99002F08800CD07088042809D0062821
:103C400007D04038402804D30E984079707100E0C6
:103C5000342738460FB0F0BDFFB581B01F46164679
:103C60000C46104659F70CF900257F2802D021890F
:103C7000062909D03B4632462146019852F751FBAE
:103C80000546284605B0F0BDC00601D50225F8E777
:103C900020780028F5D1300AA11D3EF7DAFCF0E7C4
:103CA0000E490020086070477047000030BCFC07D8
:103CB0004CB9FC07C0000040108000002941000002
:103CC0007671000058BFFC0748BEFC073803F207B6
:103CD0004003F2079C03F207D803F20700000840F4
:103CE000064C0125064E05E0E36807CC2B430C3C4F
:103CF00098471034B442F7D3FCF70EFA5448FC0747
:103D00007448FC07F8B5040C8BB2264682B25E43B9
:103D10000D0C1046370C58433604801900217941A8
:103D200016466E43370C36048019794126466E4399
:103D30008919F8BD02E008C8121F08C1002AFAD18B
:103D400070477047002001E001C1121F002AFBD11B
:103D50007047F401030070CAEA80D007064064325D
:103D6000523DFC07F08BFC079520FC073321FC0734
:103D700093DEF007F1DEF007F9DEF00749DFF00728
:103D800061DFF00777DFF00799DFF00719E3F0074D
:103D9000BDE5F007FDE3F0071DE4F0073DE4F007A3
:103DA0007BE4F0078BE4F007F5F9F007B1F7F007D3
:103DB000CFF7F007EBF7F00705F8F00719F8F00771
:103DC00097F8F007AFF8F007DFCDF10767D0F107FC
:103DD000DBB9F007CD0DF207B10EF207AD0EF20719
:103DE000A90EF2078D21F0077D06FC07391CFC07A0
:103DF0006D09FC079F08FC078908FC07B57EF007E2
:103E0000837DF007B938FC07599EF107634CF10731
:103E1000BD28FC07D110F2071D29FC07B111F207DC
:103E20004112F2077912F207000000007706FC0742
:103E30007906FC07B9C6F007D592F1074739FC07A8
:103E40005F9DF1075F9CF107593CFC07EB72F1079E
:103E5000B922F1076B04F1074D06FC072BA4F0070C
:103E6000F1D2F0075FBDF007D5BDF00785BEF007C2
:103E7000DB2DF007752EF0071581F007DF7FF007C7
:103E80000937F007000000006706FC076F06FC0713
:103E90004F06FC07F3C3F10775C4F1077B06FC0767
:103EA0008B21FC0700000000000000000000000063
:103EB0000000000000000000000000000000000002
:103EC00000000000000000000000000000000000F2
:103ED00000000000000000000000000000000000E2
:103EE0000000000005000000084FFC07000400006F
:103EF0005892FC07AC0200004C8EFC070004000046
:103F00001095FC07700500002003000000A60E00BD
:103F100004000000D2000000320000003C0000005D
:103F2000010000000100000002000000020000008B
:103F30000400000003000000060000000000000074
:103F4000020000000200000000000000000000006D
:103F50000300000003000000050000000500000051
:103F6000060000000A0000000A000000C80000006F
:103F7000B80B000002000000B80B0000B80B0000F6
:103F800010000000D4010000CC010000700200000D
:103F90006A00000004000000010000002000000092
:103FA0000A00000001000000E20400008A02000094
:103FB000DC050000AF000000603DFC0700000000D1
:103FC000B840FC073041FC076442FC0700000000D9
:103FD00001040000000000000000000000000000DC
:103FE0003F000000000000002000800000C0000032
:103FF00000008400000028220000000000000400EF
:1040000000F7FFFF7F00000030F0FF0F000000000E
:10401000000400000000000000000000000000009C
:104020000000000000000000FF0F000001009909DF
:1040300003009909070099090F0099091F109909B0
:104040002F2099095F519909080004900000000091
:1040500000000000030005D08B0035F010005CF07C
:10406000000010B0000018B000001AB0030051F0BA
:10407000000038B000003AB0000064B0000066B044
:10408000000022B0000024B0010005D000000000B4
:104090000A00008008030490000004F0030006D02A
:1040A000000000000A00008008030490000004F0F3
:1040B000030006D000000000C443FC07C843FC070F
:1040C000CC43FC078D32FC07130C00004B29F20790
:1040D000150C00009127FC07170C0000572BF20766
:1040E000000C00002328F20706FD00005728F20705
:1040F00003FD00003728F20708FD0000B328F2078F
:104100000EFD00000F29F20705FD0000992BF207B4
:10411000C840FC070900000014000000ED14F2077D
:10412000FD0000002126F207FF0000000000000053
:104130001841FC071C8DFC070200000000004C0425
:104140004C0407010001020304050600FF00000003
:10415000000000000000000014000000732FFC07A6
:1041600000000000FF000000000000000000000050
:1041700000000000583FF207A88DFC070400010072
:10418000000000000000000000000000010D000021
:104190007D2DFC07000D0000A52DFC07000E000082
:1041A0005F2EFC07010E0000FD2DFC07030E000032
:1041B000772EFC070A0E0000A72EFC070C0E00004D
:1041C0008531F2071C0D0000C731F207100D000009
:1041D0008530F2070F0E0000F931F2072C0E0000B7
:1041E0003932F207120C00005332F207080E0000B9
:1041F0006F32F20702140000AD2FFC07A936FC074E
:104200000B37FC0700000000000000008B29FC07B2
:10421000000000000337FC07000000009B29FC079A
:10422000000000000000000000000000A329FC07BF
:10423000B529FC07BD29FC07CF29FC0700000000B9
:10424000FD29FC07092AFC0700000000000000000F
:10425000492FFC07F130FC072130FC07ED32FC0749
:10426000F8000000252DFC07612AFC07FC41FC0733
:104270002937FC075042FC07648DFC070000000052
:10428000948DFC07FD000000CC43FC0730000000CB
:10429000AF32FC070000000000000000000000003A
:1042A000FF0000000000000000000000000000000F
:1042B000000000000000000000000000595A08E45F
:1042C000862A9E8FE911BC7C9843421820EE8D0C03
:1042D000E1F04A0CB325DC536A68862D4F43313C2C
:1042E000939242E6A876FA3BEFB4875A17B96798DB
:1042F0004C664C01963331B1915900152368EC524C
:104300001E6244749A1BD18BAB75B66E9EE7BA08D9
:10431000B9A948ABA1AC031C2E0D296C28D5E1C16D
:10432000E1C54729B55765C3BA47159E8C09E0D149
:10433000815442408E4FD2B377E32A77595A08E42A
:10434000862A9E8FE911BC7C7C46421820EE8D0C9B
:10435000E1F04A0CB325DC536A68862C4F43313CAC
:10436000939242E6A876FA3BEFB48759595A08E48B
:10437000862A9E08E911BC7CD047421817B9679875
:104380004C664C01963331B1915900142368EC52BC
:104390001E6244749A1BD18BAB75B66D28D5E1C1F2
:1043A000E1C54729B55765C3BA47159DF3D81C45E4
:1043B00011964D1213FED63BCC316C6E00280328AB
:1043C00002290129001A213003000000BC43FC0728
:1043D000100000000100000010001000BC42FC07AB
:1043E000BE43FC07020000000100000000000000C6
:1043F00000000000CC42FC07100000000800020092
:104400000100000000000000C243FC0702000000A1
:10441000010000000D000D004448FC07BE43FC07EE
:104420000200000001000000000000000000000089
:10443000DC42FC0710000000088000000180000042
:1044400000000000C243FC07020000000100000061
:10445000090009001C48FC07BE43FC0702000000DD
:10446000010000000000000000000000EC42FC071A
:104470001000000001020000C90000000000000060
:10448000C043FC0702000000090002000200000017
:1044900000000000C243FC07020000000100000011
:1044A0000B000B00E047FC07BE43FC0702000000C6
:1044B000010000000000000000000000FC42FC07BA
:1044C00010000000010000000200000000000000D9
:1044D000C243FC0702000000010000000B000B00BB
:1044E000EC47FC07BE43FC0702000000010000008F
:1044F00000000000000000000C43FC07100000005A
:10450000010200000100000000000000C043FC07A1
:10451000020000000900020002000000000000008C
:10452000C243FC0702000000010000000C000C0068
:104530002848FC07BE43FC07020000000100000001
:1045400000000000000000001C43FC0710000000F9
:10455000410000000100000000000000C043FC0713
:10456000020000000900020002000000000000003C
:10457000C243FC0702000000010000000C000C0018
:10458000F847FC07BE43FC070200000001000000E2
:1045900000000000000000002C43FC071000000099
:1045A000090202000100000000000000C043FC07F7
:1045B00002000000090002000200000000000000EC
:1045C000C243FC0702000000010000000A000A00CC
:1045D0003848FC07BC43FC07100000000100000045
:1045E000100010003C43FC07BE43FC070200000023
:1045F0000100000000000000000000004C43FC0728
:10460000100000000800020001800000000000000F
:10461000C243FC070200000001000000080008007F
:104620001048FC07BE43FC07020000000100000028
:1046300000000000000000005C43FC0710000000C8
:10464000088000000100000000000000C243FC07D9
:10465000020000000100000011001100B847FC0733
:10466000BC43FC0710000000080000001000100010
:104670006C43FC07BE43FC07020000000100000081
:1046800000000000000000007C43FC071000000058
:10469000010200000200000000000000C043FC070F
:1046A00002000000090002000200000000000000FB
:1046B000C243FC07020000000100000010001000CF
:1046C000CC47FC07BE43FC070200000001000000CD
:1046D00000000000000000008C43FC0710000000F8
:1046E000010000000200000000000000C243FC07BF
:1046F0000200000001000000070007000848FC0756
:10470000BE43FC07020000000100000000000000A2
:10471000000000009C43FC07100000004100000066
:104720000200000000000000C043FC07020000007F
:10473000090002000200000000000000C243FC0764
:10474000020000000100000012001200A447FC0754
:10475000BE43FC0702000000010000000000000052
:1047600000000000AC43FC07100000000100000046
:104770000280000000000000C243FC0702000000AD
:10478000010000000C000C009447FC07010202002D
:104790000003000052656164206D6520285249299C
:1047A0000000000052656164206D652028696E6418
:1047B00069636174652900005772697465206D65CD
:1047C00020286E6F207273702900000052656164AA
:1047D000206D6520286E6F746966792900000000DD
:1047E0004144432056616C756520310041444320AB
:1047F00056616C7565203200496E64696361746549
:1048000061626C650000000052656164206D6500A6
:104810005772697465206D65000000004C454420A6
:104820005374617465000000427574746F6E205398
:1048300074617465000000004C6F6E672056616CF7
:1048400075650000436F6E74726F6C20506F696EF7
:10485000740000007848FC077848FC0790060000C8
:10486000443DFC07C08BFC07C08BFC078C0200009A
:08487000443DFC070E000000AE
:0400000507FC0111E2
:00000001FF
