:0200000407FCF7
:100000006866FC07C101FC07C901FC07E101FC07A8
:1000100000000000000000000000000000000000E0
:10002000000000000000000000000000F901FC07D3
:100030000000000000000000FB01FC07FD01FC07C0
:10004000151DFC074F1DFC07A526F007E11AFC074C
:10005000D118FC07FF01FC07B517FC07FF01FC07DF
:10006000FF01FC07FF01FC070B14FC070F14FC0742
:100070001314FC071714FC071B14FC07FF01FC07F3
:100080005514FC07FF01FC07FF01FC07FF01FC07FB
:10009000FF01FC07FF01FC07FF01FC07FF01FC0754
:0800A000000000008E070E00B5
:0200000407FCF7
:100110000448854604F0CCFA004800476903FC0710
:10012000C046C0466866FC0710B520480189C9086A
:10013000C9000181008A1E4CC00715D0608A800763
:10014000800F012810D91B481949428820310A81A3
:1001500082888A80C2880A80618AFF228132008870
:100160009143C001014361821349062008800F209A
:1001700000F00EF8012000F00BF8002000F008F865
:1001800060890421884360810020208062B610BD10
:10019000002809DBC106C90E012088400749086014
:1001A000BFF34F8FBFF36F8F704700000003005005
:1001B00000000050A000FC070034005080E100E087
:1001C0000F4880470F48004704207146084203D07B
:1001D000EFF309800C490847EFF308800A49084704
:1001E00004207146084203D0EFF30980074908470D
:1001F000EFF3088005490847FEE7FEE7FEE7FEE764
:100200002901FC071101FC07A902FC071102FC07E8
:1002100010B5044620484089C00508D51B2000F0D1
:10022000B5FF1D486030018801221143018005227D
:1002300012071088518A0007800FFF2381339943EA
:10024000C001014351821549206808606068486018
:10025000A0688860E068C8602069086160694861DA
:10026000A0698861E069C8610C620D48836A4B62CD
:10027000C36A8B62036BCB62C36B0B63436B4B63D1
:10028000806B8863074908200880908AC00601D5E2
:1002900000BE10BDFEE70000200000500090FC07EB
:1002A00000ED00E00033005070B5052504462D0731
:1002B000288A04210843288228894021084328816C
:1002C00024480126066024490820088023484089E4
:1002D000C00507D51B2000F059FF20486030018879
:1002E000314301802888698A0007800FFF2281320C
:1002F0009143C0010143698219492068086160681F
:100300004861A0688861E068C86120690862606926
:100310004862A0698862E069C8620C631148826A19
:100320004A63C26A8A63026BCA63C26B0C4940317A
:100330000A60426B4A60806B8860A88AC00608D554
:1003400000BE688A012180088000C90308436882D2
:1003500070BDFEE780E200E0003300502000005056
:100360004090FC0700ED00E008B500F0C4F800F094
:1003700041FB052424070825C826A74F0DE00120CE
:1003800000F0FAF900200090042168464DF7D6FBF2
:10039000002817D000F0B3FA14E02089000611D528
:1003A00001208007006B00040CD49C480078C00733
:1003B00008D15DF722F8002000F0DEF998480078B7
:1003C0000428DCD072B601F055FD042806D00228BE
:1003D0000BD0032809D0012817D017E091480078E6
:1003E000012801D0032000E0022000F04EF8A08A8E
:1003F000C00601D58C48058030BFA08AC00601D553
:100400008948458000F005F800E030BF62B63E80C4
:10041000C3E710B500F080F9844902280CD105200B
:100420000007408AC005820F814802800A89428005
:100430008A8882800A88C28048896021C005002895
:100440000ADB7A4860300088C00705D0774A20323E
:10045000508A884320305082764882888A432032EE
:1004600082807548C078002807D0744800680189E8
:100470008AB2416803205CF721F902F0B6FF7048A8
:10048000016904229143016110BD38B56946052414
:1004900008702407218A054604221143218200F0B6
:1004A00063F8624841896022C905002905DB5F4B7A
:1004B0002033598A9143403159825E498B88934356
:1004C00040338B80022D01D0032D13D18188490840
:1004D00049008180002000900099491C0091142956
:1004E000FADB618989088900491C618161894906B3
:1004F000FCD5608038BDF0B552485349052301272B
:10050000524A884201D31C4604E0904201D33C4643
:1005100000E000244E4D4F4E4748AD194E4E8470BA
:10052000AD190126B6034560B54201D8142500E097
:1005300000252540494C45708C4213D2484B254636
:10054000EB18944205D38B4201D211230AE03B46BB
:1005500008E0934201D2142304E08B4201D210231D
:1005600000E000230370F0BDF8B5022801D0032895
:1005700048D1334A136904210B4313612D4A203AB1
:1005800093895B085B009381052410222A4E24077F
:1005900002287578608A36D010436082608A0843EA
:1005A00060827068C01C870801F000FA608A102120
:1005B000084360822B487F1E0762EFF31080012101
:1005C00081F310882188802291432180002800D067
:1005D000012080F3108815484089C0050AD501F034
:1005E000D3F90B2000F0D2FD1048603001880122C1
:1005F0001143018003205CF787F8002806D0012012
:10060000F0702583F8BD90436082F3E70020F0701E
:1006100030780540F5E700000031005054BAFC077F
:10062000008DFC07B4BAFC070033005020000050D6
:10063000A000FC0720030050C08BFC0758B9FC0742
:1006400000ED00E0C08BFC070070FC070040FC07D9
:100650001001FC07C85D0000000004F86866FC0794
:100660000C0400000000F407704770B50D4600242C
:1006700042F745F92855641CE4B2202CF8D3002039
:1006800070BD10B55EF726FD10BD10B55EF72BFDF1
:1006900010BD7047704770470649884200D000BEC1
:1006A00005210907488A012280088000D2031043EF
:1006B00048827047111111112B480178002902D08E
:1006C0008021417070472949002008702849C8706E
:1006D000704725490A78002A03D000280CD0022050
:1006E0000BE0002801D0022000E001201F49087023
:1006F0001F490120C8707047012080304870704742
:10070000002805D0012804D0022804D10120E0E708
:10071000D2E70020FBE77047144900200978002940
:1007200004D0012903D0022900D102207047012002
:1007300070470D48C07870470020EFF31081012208
:1007400082F31088052212071289120605D409487F
:10075000028901231A4302811846002900D0012191
:1007600081F3108870470000C88BFC07B4BAFC07FF
:1007700054BAFC070033005010B5FE4CA178002994
:1007800021D0FD49002803D008884007FCD402E0AE
:100790000888400717D4CA88888811040A180020DE
:1007A000A070F64800235043800B401C4008E061D5
:1007B0001F204006492162F753FEE162A0626421D6
:1007C0004843000CA06110BDEB4948800888032213
:1007D000104308800888042210430880E54901205E
:1007E0008870704770B50520000701893022914359
:1007F000018101898022114301810189082211436D
:100800000181DF490A88520852000A804389182270
:1008100093434381048940231C430481048A0425B3
:10082000AC430482848AA407FCD5D24DAA246C610F
:10083000CD8801240F263602B5430B263602AD19AA
:10084000CD80CD882543CD804489944308344481AC
:100850004A88520852004A80018999430181012047
:1008600080070168821591430160C64801683F22F4
:100870005202914342148918016001680203114336
:10088000016070BD10B5BB490122D203C969904215
:1008900005D303F068FF8905800A084310BD48436B
:1008A000800A10BDEEE710B5B24989694843B649E0
:1008B000401849005EF7A6FB10BDF4E770B500F0E4
:1008C000EEFB0446FFF7F9FFAA4D288120463C3095
:1008D000FFF7F3FFAD49001D88602A891018C01D7D
:1008E000AB4A48601278022A01D111304860FFF704
:1008F000D9FFA849401880B25CF710FE70BDF0B572
:10090000A54985B00120C863C86B0028FCD101202F
:100910008007C069974C2169884201D2002121617A
:100920001922411AD20191422AD320619B480188A1
:100930000391418802918788C688994903C900902C
:100940000191684600F079FE00F04FFF0546012056
:1009500020567F280CD0281A40B2002801DA4042E5
:1009600040B2082805DBE068401CE06001F03FFC75
:1009700065708A48029941808780C680039901800A
:1009800005B0F0BD0020704710B586490020086012
:10099000FFF794FF01208007016B490049080163BC
:1009A00010BD08B57349888075498A88520852007D
:1009B0008A80002200920099491C00911429FADBD8
:1009C000052109074B899B089B005B1C4B814B89C8
:1009D0005B06FCD54880E120C0000092521C0092CA
:1009E0008242FBDB488980088000488148890006F4
:1009F000FCD508BDF8B56C48C821018000214180B4
:100A00006A480824448000F007FC694DA9886846BC
:100A100001800088C046C046684600880423984389
:100A20003ED00020A8806248203001880F22920228
:100A300011430180524E2036718A21437182504900
:100A400060310A880625AA430A800588CA01154331
:100A50000580758A95437582B28A0E25AA43921D38
:100A6000B282474A5589534FED050D881DD5BD43C8
:100A70005701ED190D800D880F022D052D0DED1973
:100A80000D8005882543058005889D4305800D88D8
:100A90006D086D000D8001884025A943018020E08C
:100AA000288A400840002882BDE7BD4303277F0213
:100AB000ED190D800D880F273F033D430D800588FC
:100AC000A543058005889D430580B58A03277F02DD
:100AD000BD43B5820D8801273D430D8051894907EB
:100AE000FCD50188032529430180718A6025A9432B
:100AF000203171828188A9432031818001201D4EDF
:100B0000052530702D07E88AC02188438030E882AF
:100B1000108A000A00021082108B1C2188430830C2
:100B2000108325480380A8880121C9028843A88032
:100B300048012249086000F039FF022000F0FBFE66
:100B40001F4F3869C0B2AA2873D0012029880C220F
:100B500091438000014329800648203000F0C8FA04
:100B600000F02AF900F098FA002864D000F094FA16
:100B700028E00000D08BFC07001600501111010086
:100B8000200000500002004020A10700D85EFC07B2
:100B9000B4BAFC07E2040000C00000400015005099
:100BA000A054FC07A8B9FC070031005000330050E6
:100BB00000030050000F00000002005080E200E03F
:100BC000C07FF807FFF7EDFE7F207070B86A1E49FE
:100BD000086000F01BFF00F041F802F006FC012065
:100BE00041F793FEFFF7FEFD1848006841F732FB1E
:100BF00017490020C870087101208007016882151C
:100C00001143016000F0F8FF1E20FFF7DDFD012019
:100C1000FFF7B2FDFFF750FD02F066F802F04FFE5D
:100C2000FFF7B2FE0B49C82008800B484480F8BD8E
:100C3000FFE703208AE73869C0B2AA2801D06E20F6
:100C400096E7802094E70000D85EFC074CB9FC07CB
:100C500054BAFC07003100500033005070B53548DD
:100C6000334D006834492C6892B0884205D0052283
:100C70005202324932485EF73FFA324E324930462C
:100C80005EF753FA0721314809025EF74EFA2C60ED
:100C900003F052F92F492E4808602F4800240480A1
:100CA00030222E492E485EF727FA29490822886803
:100CB000C9681191109010A92A485EF71DFA2449BD
:100CC0004022103168465EF717FA402269462648EE
:100CD0005EF712FA2548274904702548086027491D
:100CE0002548086027492648086027490A200870D7
:100CF00026482749047032200870264905200860DC
:100D0000254A01211160254908602549062008600F
:100D1000244907200860244908200860FF2023494F
:100D200007300860224908602248066012B070BD92
:100D30005CBAFC079CB8FC076587341200B0FC075E
:100D40004C8EFC0700A0FC07AC14000000B9FC07A7
:100D5000A854FC0760BAFC07008CFC077CFCF10778
:100D600000BAFC07DAB9FC07B0BCFC07FDB9FC0708
:100D7000603FF20750B9FC073852FC0754B9FC0732
:100D8000B453FC0758B9FC07B0B9FC07B1B9FC076C
:100D9000D9B9FC075CB9FC0760B9FC0764B9FC076A
:100DA00068B9FC076CB9FC0770B9FC0748B9FC07C7
:100DB00044B9FC074CB9FC07F0B5C14C89B0002020
:100DC000207660760390BF480169BF48814202D017
:100DD000C01709B0F0BDBB4F0425403FE819016DB5
:100DE0000191090F092910D0012201989207904220
:100DF0007AD3B64A904277D8B5490835884274D13B
:100E0000E819C16CB3484180A6E0019A0199120427
:100E1000C9B2160E112935D007DC0B005EF7C0F9F8
:100E2000087474747474740D1F7412390B005EF7B7
:100E3000B7F9063A4B5D6B60656B207EB200C1006E
:100E40009F48403808189F49143169185EF754F9D3
:100E5000207E8019C0B22076042854D854E0607EE9
:100E6000B200C10096484038081896491030143135
:100E700069185EF741F9607E8019C0B260760C286F
:100E800041D841E0416D89B20291406D000C0146AC
:100E90000490029800F006F9A0800499029800F0EE
:100EA00009F9E08030E0416D89B20491406D000C99
:100EB00001460290049800F0F5F820810299049808
:100EC00000F0F8F860811FE0039805A98000401841
:100ED0007C49B200143169185EF70EF90398801945
:100EE000039002280FD80FE02BE010E0406D6082E5
:100EF0000AE0416D72484038016405E0406D00042D
:100F0000000CA08200D100BEB00045194AE0704933
:100F10002639884203D1E819C06CE0821CE06C4994
:100F2000091F884204D1E819C06C6A49888013E01F
:100F30006749083988420FD1E819C06C6549C880F3
:100F40000AE007292ED008292CD00A292AD0062900
:100F500028D0401C07D000BE5A48103029185E48DF
:100F6000814200D23AE70598A0810698050C86B226
:100F70002946304600F096F8E0812946304600F0D8
:100F800099F82082207EC10700D000BE400820765C
:100F9000607EC10700D000BE40086076A18A0029AB
:100FA00002D004E02D1DD7E77D21C900A1820428CD
:100FB00000D000BE00200CE7F8B5414C0025403CB5
:100FC0003F4F24E0EE00A059444988421AD130191D
:100FD00000904068800A400414D001F0EDFB09281D
:100FE00010D90098032240681202014609041040FB
:100FF000890E0843A1590860009839494068C0012A
:10100000C00D02E030194068A15908606D1C387E9F
:10101000A842D7DCF8BDF8B5294C0025403C27464E
:10102000403717E0E80006192E48316981420DD19A
:1010300001F0C2FB092809D92B49706908402849E9
:101040000988490408433169086002E03069716920
:1010500001606D1C787EA842E4DCF8BD18490420CC
:10106000085E704716490620085E7047144908203C
:10107000085E704712490A20085E70471048808950
:1010800070470F490E20085E70470D491020085E1A
:1010900070470B48408A70470948C08A7047084823
:1010A000808A7047081A0104890C40180F494018BB
:1010B00000B27047C2008018401A0004C014704784
:1010C000448CFC07C07EF807A5A5A5A54C4200509E
:1010D00028000050A000FC07C07FF8074C1000401B
:1010E000E45EFC0738300040FFFF01FC0100FFFF19
:1010F00010B5062201495DF7FFFF10BDD47FF80748
:101100000520000701883022114301800188032255
:101110001143018070470520000701883022914368
:1011200001800188890889000180704736490A8B4F
:1011300003231B029A43000202430A837047334988
:101140008A8A03235B029A43C3085B021A438A829A
:101150008A8A0723DB0240079A43800C02438A8273
:101160002A48403001880122114301802748203855
:1011700041894907FCD570472448818A808A4905FE
:10118000890F8004400FC900081870471F498A8AD8
:1011900003235B029A43C3085B021A438A828A8A4A
:1011A0000723DB0240079A43800C02438A82704780
:1011B00010B50446154820384089C00502D40120E6
:1011C000C04310BD00F0DDFB002806D0FFF7D4FFC0
:1011D000A04202D90020C04310BD0C48408AC00480
:1011E00008D40B480088000704D4082C02D204203D
:1011F000C04310BD07480121047041702046FFF72D
:101200009EFF002010BD0000203000504000005024
:1012100020030050E85EFC07F0B585B00026884C3E
:1012200002960298302148430096001900998900DF
:1012300046500099491C00910C29F7DB0298401C8C
:1012400002900128EDDB02F07DF87D4D0021083D84
:101250002960696001270296002000900299794870
:101260004900465A00993846884080B206421DD04F
:101270000298302148430099001989004058411CC8
:101280001BD000280DD0C117009A5DF779FF029A94
:1012900012015DF775FF2A686B68104319432860D7
:1012A00069600098401C00900C28DBDB0298401C11
:1012B00002900128D0DB05B0F0BD00BEE3E7F8B531
:1012C000164605460C460A461F46012000215DF7DA
:1012D00057FF2A015DF754FF594B083B1A685B68BA
:1012E00010401940084300D100BE6801564940181B
:1012F000610008183E43C680F8BD70B505460C462F
:101300000A46012000215DF73BFF2A015DF738FF07
:101310004B4A083A1368526818401140084300D1FC
:1013200000BE6801484940180121A140818070BD7C
:1013300070B505460C460A46012000215DF720FFE6
:101340002A015DF71DFF3E4A083A136852681840AB
:101350001140084300D100BE68013B4940180121FB
:10136000A140418070BDFFB581B00C4605460A46DC
:101370001F46012000210A9E5DF702FF2A015DF74A
:10138000FFFE2F4B083B1A685B681040194008436A
:1013900000D100BE002E2146284602D0FFF7C8FF2C
:1013A00001E0FFF7AAFF3B4621462846039AFFF7D4
:1013B00086FF80E770B5012421460A3881400D463A
:1013C00088B200F02CF884402048C189A9430C431E
:1013D000C48170BD10B504460A3804280BD82046D5
:1013E000FFF7E8FF1649A000303140188038806DC3
:1013F000002801D0804710BD002CFCDBE106C90E9F
:10140000012088401249086010BD0A20E2E70B2045
:10141000E0E70C20DEE70D20DCE70E20DAE700280D
:101420000BD0411E4840C003010C002002E04908D7
:10143000401C80B20029FAD170471020704700008C
:10144000688CFC07F854FC07003000500014005072
:1014500080E200E010B5FFF75EFE052212079088DB
:101460002049000504D5204B1C880520A04311D03D
:101470009088C3061D481FD58388DB071CD00388CE
:101480001B0619D501228280028880239A4302809C
:10149000486822E018880422104318801888400801
:1014A000400018800C68002C05D00220185E995E60
:1014B0000A229A5EA04710BD9288D206FBD5828888
:1014C0009207F8D50288D205F5D5022282800288DB
:1014D000FF2301339A43028088680028EBD08047BD
:1014E00010BD0000AC8CFC07000200500001005051
:1014F000EF48018801221203914301807047EC48B4
:1015000001880122120311430180642000BF401EA4
:10151000FCD17047E649CA88D208D2000243CA808B
:101520007047E349CA8870239A4300010243CA8086
:101530007047F8B5050049D0DD4C29782088402255
:1015400090438901084320806878FFF7EAFF2878F4
:10155000002803D168780009FFF7DCFFE87804264B
:101560000128208833D0B04320802879A188000248
:10157000C9B20143A180E08801274006400F7F02E5
:10158000042826D0FFF7B4FFA8780F2800D900BEA2
:1015900061880F22520291434002014361806879C1
:1015A00061888908890001436180A8790128208821
:1015B0003BD0B8432080E879072800D900BE618875
:1015C000FF22C1329143800101436180F8BD304365
:1015D000CAE7FFF75EFDB7490028088001D1B64889
:1015E0000880FFF78CFF2088384320802188402026
:1015F0008143014321806088304360806088C0045B
:10160000C00C608060880F214902884308436080D5
:101610006088FF21C1318843FF2181310843608008
:101620006088800880006080F8BD3843C2E7A04829
:101630000188012211430180704770B505469C4C1A
:10164000002020802120000160804020A080FFF742
:1016500015FDA081A189702081434031A181062020
:1016600000F0E3F82846FFF764FFFFF7E0FF70BDE6
:101670008F48018849084900018070478C480188DB
:10168000022211430180704700B5FFF7F7FF884839
:1016900001888907C90FFBD10121C181008A00BDE2
:1016A000F8B5834C05466088000700D500BE208849
:1016B000009067880020FFF7C0FF6088042108437E
:1016C000608060880F214902012388435B02184330
:1016D00060802088984320806188FF20C13081434A
:1016E00001436180208840218843A901084320806C
:1016F0002089800A8002184320816089800A800244
:101700001843608120888021084320802188581058
:1017100081432180FFF7B8FF8009FF38FF38023886
:1017200086B22088FF21013108432080FFF7ACFFFB
:101730008009FF38FF38023880B2012D23D0991B71
:10174000012589B2AD02A94200D300BE2289920AC6
:1017500092020A432281181A80B2A84200D300BE26
:101760006189890A8902014361812188FF20013052
:1017700081432180FFF788FF8009984212D9FF3802
:10178000FF3802380FE07100591A012589B2AD0205
:10179000A94200D300BE2289920A92020A43228102
:1017A0004000D8E7181A082800D300BE009820800F
:1017B0006780F8BD3E490120C88140480068002884
:1017C00000D00047704710B500F03CF838494A880F
:1017D000D205520F062A01D9062102E04988C9051F
:1017E000490F0622511AC84010BD10B5FFF746FF39
:1017F0002F4801888907C90FFBD10121C181008AC7
:101800002C4A2F491288801A7D22D200504300288A
:1018100001DD4A1002E0002801DA2A4A80185DF74B
:1018200007FC8011193040B210BD002809DBC10649
:10183000C90E0120884024490860BFF34F8FBFF3D1
:101840006F8F7047F8B5054619484188090705D5D7
:10185000FFF717FC0646FFF718FC0FE00088800929
:10186000C007C00F05D0FFF7F9FB0646FFF7FAFBEC
:1018700004E0FFF7FBFB0646FFF7FCFB04462804E9
:10188000401B124D71190E465DF7BCFB0746200444
:10189000001B31465DF7CCFB391A6800814201D943
:1018A0000020F8BD28468142FBD888B2F8BD000070
:1018B00000150050EA5EFC0740760000B88CFC077B
:1018C000AA0500002BFDFFFF80E100E0FFFF000004
:1018D00010B50A4880890A49C96A002901D0884799
:1018E00010BD042000F001F810BD002805DBC10682
:1018F000C90E01208840034908607047201300503A
:10190000EC5EFC0780E200E010B50446FFF734FC13
:10191000A04202D22046FFF739FC58480188C90787
:1019200008D101880122114301805448603841895F
:101930004907FCD510BD38B5514C05462068410714
:10194000490F684601700078854219D04B486038CD
:101950004089C0050CD5A81E03005DF721FC0504D5
:101960000604040409000B2000E01320FFF7CCFF5D
:101970002068C008C0002843206060684007FCD58C
:1019800038BD4048007870473E49002008707047D5
:10199000052109070988090600D400BE80003A49DC
:1019A00009583748016139494161704710B5EFF373
:1019B0001084012080F31088304860384089C005C9
:1019C0000BD5304901200870FFF7D6FB304908706D
:1019D0002A480088C007C00F48700520000701880A
:1019E00080221143018026480168C908C9000160AE
:1019F00041684907FCD50320FFF7CAFF002C03D03C
:101A0000012080F3108810BD0020FAE770B5EFF3D5
:101A10001084012080F3108805210907088880229E
:101A20001043088016480368DB08DB000360436846
:101A30005B07FCD5174B0361144B43610888904347
:101A400008800E4860384089C0050ED50D49002039
:101A50000F4D08702878FFF799FB6878002804D1AB
:101A600006480188490849000180002C03D0012064
:101A700080F3108870BD0020FAE70000800000505D
:101A80000000F407BC8CFC07FC54FC07090404A408
:101A9000E85EFC070F009909544930B4884201D030
:101AA000012100E00021524A4901891808E0838A97
:101AB000DB07DB0F12D00388541C8D68CC81AB543C
:101AC000CA898B899A42F2D3828852085200828056
:101AD0008A69002A02D0C88930BC104730BC7047E0
:101AE00010B5444800F001F810BDF8B53F4D404E28
:101AF000044620890007000F062826D009DC0128AB
:101B000040D002281DD00428F3D12046FFF7C4FF9F
:101B1000EFE7072828D00C28EBD1AC4201D00120F8
:101B200000E00020400187192046FFF7B5FFA1889B
:101B300049084900A180B9690029DAD0F8898847A5
:101B4000D7E7204600F01FF8D3E72046AC4201D08B
:101B5000012100E00021490189190A69002AC8D041
:101B6000818A9E2319400BE02046AC4201D001211E
:101B700000E00021490189190A69002AB9D0012130
:101B80009047B6E7F8BD194930B4884201D0012129
:101B900000E00021164A490189180EE003891B065E
:101BA0009B0F032B1BD0838A9B06DB0F002B95D04A
:101BB000531C0C68CB80A25C0280CA888B889A4236
:101BC000ECD3828802239A438280828880239A43BE
:101BD00082804A69002A81D0888830BC10477C23E3
:101BE0001B5A9B07DB0FE1E778E70000001000506D
:101BF000C08CFC0700110050F8B51D481B4D006853
:101C0000A84231D0FF26C136012130465AF7E4FD03
:101C100004461848016818480A0A017042700A0C04
:101C20008270090EC1700022A35CFF21C0319F07A2
:101C3000891ABF0F615CC75D79405940A154521C9D
:101C4000B242F1D30C481C222146001D5FF7E8F98F
:101C5000002800D000BE20465AF739FE06484068EA
:101C600040F753FE02480560F8BD00006587341256
:101C70009CB8FC07D85EFC071C5FFC07F8B5012583
:101C8000AD07AC6B2046FEF70DFE6849684F4A6809
:101C9000861800204860394630465DF7B3F965493B
:101CA00048603A465043301A00D0381A80B2086073
:101CB000286B08218843084328635F4804605F4815
:101CC0000068002802D0A04200D200BEF8BD10B5C6
:101CD000FFF721FA052000074189890703D04189D0
:101CE0008908890041810189802211430181018A8B
:101CF000042291430182818A8907FCD500F0B2F861
:101D0000012080070169490700D500BE0169490724
:101D1000FCD510BD10B5FFF7F3F949480189490713
:101D2000FCD4FFF7F8F947480521008809074880E7
:101D30004548464C0088801E608007202080FFF7C1
:101D4000DFF920884007FCD4FFF7C1FF10BDF8B5CC
:101D50003F480168C90703D00168022211430160AE
:101D60000168490204D5016801229205114301600E
:101D700001272E4EBD072C69002C55D0200606D514
:101D80008020A8614BF783FD1E20FEF71DFDA007F4
:101D900003D50220A86147F778FC200708D5082062
:101DA000A861002047F72AFC0420307000F0FBFCFB
:101DB000E00505D5FF200130A861012047F71EFC92
:101DC000A00504D501204002A8614BF7C9FD6006BB
:101DD00003D54020A86147F70CFCE00603D510208E
:101DE000A86145F7C9FF60070FD50420A861144812
:101DF00001894908490001815BF766FB40F720FC37
:101E00001E20FEF7E1FC00203070E00706D0012024
:101E1000A8615BF775FB4BF73AFD3770A006AAD5B2
:101E20002020A86100BEA6E7F8BD0000008DFC07D9
:101E30007102000040000040108DFC07088DFC0777
:101E400000330050D48BFC07D88BFC0700160050E1
:101E50000002004010B540F738FA674880686749CB
:101E6000486010BD10B540F75CFA644862494068AC
:101E7000886010BDF8B5002500F0B9F80027009083
:101E8000FEF757FC01465E4E0020002902D1317951
:101E9000022900D100905B490989C9070DD15AF781
:101EA00078FB002809D0F0780125002805D005200E
:101EB0000007808AC00701D0042596E030880028FA
:101EC0007DD1FEF736FC002806D14F48806A0028F5
:101ED00002D000F08CF80090FEF7F0FCB178684674
:101EE0005BF74FF900286AD00124A4072069400657
:101EF0007BD44348817868464BF720FE002874D095
:101F00000120FFF713F90099002906D0206AFF3855
:101F10003938DA2801D8491E00913C4802883C48EB
:101F2000016850183B4A1060E26B920A92020A4321
:101F3000E263E16B384A1140384A1668B202114335
:101F4000E163E16BC902C90A40050143E163344A18
:101F5000009804250021904200D300BE314B0CCBE9
:101F60005DF77AF80903000D0843244A401E711CEE
:101F70001060884200D1166021480079002801D005
:101F8000012100E00021106847F7EEFC2648C06AF6
:101F90008047FEF7F7FC002802D0FFF7B1F80127D1
:101FA000154E206B0004C00FFBD03068C005FCD577
:101FB00030688024A0433060002F03D000E014E09C
:101FC000FFF7A9F80F494889462804D24622174B43
:101FD000101A18604A81FFF73DFF30680006FCD5F3
:101FE000052000070189A14301812846F8BD10485A
:101FF0000068806A7047000000020040088DFC07FE
:1020000054BAFC070033005074BEFC07D88BFC07A1
:10201000E05EFC07305FFC07FF03E0FFDC5EFC07CF
:1020200040420F00F88BFC0758BFFC07048DFC07EB
:1020300058B9FC07002070477047704710B5282832
:1020400001D2282002E0E62800D9E620FF21F33162
:1020500048437D21C9005CF7D5FF8130C0B210BD77
:102060007047704710B5022902D0012900D000BE88
:10207000002802D0FF2802D000BE022902D000F0C2
:102080009BFB10BD0C2010BD01218907086B0722A6
:10209000104308638C480168021391430160704744
:1020A00010B50220FFF742F8874801680203914308
:1020B0000160864800214163416B1F221204914355
:1020C00042138918416301060868F0229043E0300A
:1020D000086010BD10B58AB07D4941627D498162BA
:1020E0007D494161002430210C547C49C1627C4906
:1020F00001607C4901627C4941607C49C16100F01A
:102100003EFB7248416B1F2212049143421389180F
:1021100041636D480168C2129143016068460455ED
:10212000641CE4B2282CFAD30146714828220068C6
:1021300040305CF7E1FF092000F03BFB00F03FFB83
:10214000002802D0012000F034FB00F019FBFEF75C
:1021500033FFFEF760FF00F0D5F800F058F8FFF706
:102160009FFF00F00BFB00F083F800F01CFB0AB0AF
:1021700010BD10B55548416B1F2212049143421304
:102180008918416300060168C908C900016005207B
:102190000007018908221143018100F010FB00288B
:1021A00002D0012000F005FB00F0EAFAFEF704FF80
:1021B000FEF731FF00F0A6F800F029F8FFF770FFF6
:1021C00000F035F800F0EFFA10BD10B504467022AB
:1021D000484949485CF790FF47484830011B46484A
:1021E0001038018344495C31091B418310BD10B58F
:1021F00000F0C6FAFEF70FFF00F084F800F007F8D1
:1022000000F0BCFA00F023F800F0CDFA10BD2F4B1F
:1022100010B540331868394C0102090EC2B20A31B8
:1022200009040A32204011430143196010BD344AA9
:10223000118B3148103083691B0C1B040B438361E5
:10224000518BC269120C12040A43C26170472C4AB6
:10225000203A118B28481030C3681B0C1B040B4319
:10226000C360518B0269120C12040A430261704769
:1022700010B5FFF7ECFFFFF7DAFF21482038018A9D
:102280001D4810308268120C12040A4382601C4AF6
:1022900040329188036A1B0C1B040B430362D188F4
:1022A000426A120C12040A43426215494A88836A40
:1022B0001B0C1B04134383628988C26A120C12042C
:1022C0000A43C26210BD000000020040400000400E
:1022D0003520FC073920FC076520FC078920FC0716
:1022E0003B20FC076120FC076320FC073D20FC0726
:1022F0004CB9FC071855FC0770A0FC0700FF00FF55
:1023000020300040F0B5FE48406B7F210902884331
:102310000B2109024018FA494863086AF94980B25A
:102320004018F7490862886BF749012208405203B8
:10233000F34980188863F2484030016903231B0287
:1023400019430161818B102421438183EC482030A3
:102350008188012421438180ED49EC480860ED4CDF
:1023600020883F21090188432F210901401820803E
:10237000E84820388169E84D490D490549198161CE
:10238000C169E64D294009256D024919C1614168BD
:10239000E34D2940E34D491941608168E24D2940F0
:1023A000E24D49198160C168E14D2940E14D49196B
:1023B000C1600169E04D2940E04D49190161E049E2
:1023C000C514097809064919C1256D012943DD4D58
:1023D00029600525DC49AD020D816D1D8D81DA492D
:1023E00020310D892D0A2D0255350D818D25AD0029
:1023F0000D82D64D8D82D64D0D83D44D0E3D8D83ED
:10240000D349D14DC91D40352980D249A181C16B25
:10241000D14C2140D14C0919C163FF20D04C6C3004
:102420002080CF482030068B1F2149010B258E4389
:10243000AD0176190683CA484030868809278E4345
:10244000BF01F6198680068915278E437F01F6198C
:10245000068186898E4371198181FF208D30A0808D
:10246000BF4880300189E024A14319430181818B59
:102470004909490119318183B2482030818B5B01C0
:10248000994389188183AF4880300168C908C90021
:10249000C91C0160AB49B34840314862F0BDA9494D
:1024A00008B500208031C8620090401C0090FF28D1
:1024B000FBDDAD480078AA49C006820D4031C868EE
:1024C0001F235B0198431043C86008BDA7488C498F
:1024D0000068403108608A488169890989011C3196
:1024E00081618169C21391438161016B3F221206B0
:1024F00091430722920689180163016B3F229201E2
:1025000091430F22D20189180163016B8909890166
:102510001E31016370477A48C16949084900C161A9
:1025200070478F4808B54030C1688F4A8905C90E89
:102530001170C1681F2252019143C160814901207D
:10254000887180488030C16A03221143C162002033
:102550000090401C0090FF28FBDD08BD08B57949BC
:102560000220887100200090401C00900B28FBDBAB
:1025700008BD634841210177C1690322520291439A
:1025800002158918C16170475D4840300168774A7B
:1025900011600021C9430160594881698909890195
:1025A00081618169C21391438161C1690322520231
:1025B00091430315C918C161C16970239943403122
:1025C000C161016B3F231B0699430B235B06C918AE
:1025D0000163016B3F239B01994389180163016BE0
:1025E00089098901183101637047F8B555480327F7
:1025F0004771434C6068C009C00114306060FFF748
:10260000C3FF43202077FFF7A9FFFFF78AFF0025CC
:10261000261500950098401C0090B042FADB49490D
:1026200003204871364880308068C705FF0DFFF7EA
:1026300036FF00950098401C00901028FADBA06936
:102640004002400AF9050843A061A06948490840D2
:10265000B9010843A061FFF78CFFFFF77FFFFFF789
:1026600060FF00950098401C0090B042FADB3549AD
:1026700003204871224880308068C705FF0DFFF7AE
:102680000EFF00950098401C00901028FADBA0690E
:102690004002400AF9050843A061A0693449084096
:1026A000B9010843A061FFF764FFFFF757FFFFF789
:1026B00038FF00950098401C0090B042FADB214999
:1026C000032048710E4880308068C605A069F60D69
:1026D0004002400AF1050843A061A069244908406E
:1026E000B1010843A061FFF716FFFFF7EFFEFFF708
:1026F000D6FE00950098401C00901028FADB39E0C7
:102700000030004000008888FF00FEFF59055C078C
:10271000800000402020004009581A00FEE1FFFF21
:10272000E0E000000809294900000303696A686CB9
:10273000031FFFFF70600000E0E0E0E00B0A0A0802
:10274000148DFC070010004020130040340A0000E4
:1027500051080000070F00002F64E0FE101A060168
:102760000012004050015001C85EFC07345FFC07B6
:102770003F80FFFF134846810120F8BD35E77047D1
:1027800008B511480821017100210091009A521CDE
:102790000092102AFADB0091491C00911029FBDB02
:1027A0000321417108BD0848022181710021818007
:1027B000704706490870704704480078704703481E
:1027C00040787047385FFC0700100040148DFC070C
:1027D000FFB585B00C46FD205EF70AFD039000278B
:1027E0006846077008986946060A20885FF72CFE3D
:1027F00005466088002800D000BE002D6AD1FD206B
:1028000000F064FD694609781423594342680B1DA2
:10281000D35C022B21D15158354A098891421CD1F1
:102820000197029720885FF7AAFD002800D100BE1B
:1028300001AB002204A94EF797FB049821468005BE
:10284000C00F5FF787FD05062D0E43D1684601785E
:10285000E28830465FF759FF21E000280BD08069FD
:102860008446002807D06846A2886188A31D0078A6
:102870006546A847054601970297208801A94EF7AB
:10288000EEF8002D26D101980089C00B07D162888F
:10289000A1882088A31D4EF74CF9051E1AD1314698
:1028A00003985EF7C3FC0146A088079A801D83B297
:1028B00010485AF79FF80746A288A11D801D5CF7B3
:1028C0001BFC684600787880A088B8803E70384647
:1028D0005AF7ABF804230848079A08995AF78AF878
:1028E0002188018085705AF7A0F8002009B0F0BD5A
:1028F000022900000AFD0000160C0000F8B50025B2
:10290000244CFF272E46002813D12846103026617C
:10291000A082E7826660A660E681A681C0B22146F9
:1029200026605AF766FA6D1CEDB21834022DECD30E
:10293000F8BDE08A5EF7E2FC002802D0416820463C
:102940008847E7826660A660E681207D5AF7ABFA89
:102950006D1CEDB21834022DEBD3F8BDF1B50D4D61
:102960000D4F00242E46E88AFD2803D1182060432D
:1029700080194760E88A5EF7C1FC002803D08268AE
:10298000284600999047641CE4B21835022CEAD31B
:10299000F8BD00001C8DFC07E055FC0710B500F0E9
:1029A00007FB60F7A5FE0120FDF7AAFE10BD0C2174
:1029B000314A10B5414389188978FF2902D000F0C7
:1029C000C1F810BD00F096FF10BD10B560F778FD9E
:1029D000002801D000F08EFF10BD10B500F08AFF76
:1029E00010BD10B525490A780270401C491C5CF7DF
:1029F00083FB10BD2149498C01807047082101806B
:102A000010214180002181807D21C180704770B5F7
:102A10000C4601780025194B002904D0012909D062
:102A20004820207070BD8278011D1A70581C5CF718
:102A300063FB01E040885884257070BD0120087058
:102A4000002048808880704770B50446407980092E
:102A500011D13FF754FF014620700A0A62700A0C38
:102A6000A270090EE170251D3FF749FF2870000A8A
:102A7000C0210843607170BD648DFC07708DFC0738
:102A80000021BD4A05E0834201D101207047491C65
:102A9000C9B20C234B43D35CFF2BF4D10020704709
:102AA00070B5B549B54C0E460C36B54D0DE0521813
:102AB0005268002A07D0C2B20C235A435118496801
:102AC000401C60702DE0401C607060780C22424316
:102AD0008B5CFF2BEBD10AE089194968002903D0F0
:102AE000FFF7CEFF002809D02078401C2070217805
:102AF0000C204143705CFF28EED117E020780C21B8
:102B0000414389194968401C20700AE04919C96885
:102B1000002909D0C1B21C2251434919C968401C7F
:102B2000A0708847002070BD401CA070A0781C21B8
:102B300041436A5CFF2AE9D10020A07060702070D8
:102B4000012070BDF8B5054600248B4E0AE08019BF
:102B50008168002904D0641CE4B22846884701E05B
:102B6000641CE4B220460C214843315CFF29EED1BD
:102B7000814E00240C3609E08F19B968002903D072
:102B8000FFF77EFF002809D0641CE4B20C216143EA
:102B9000705CFF28F0D10024794E10E0641CB96805
:102BA000E4B228468847F1E780190169002904D07A
:102BB000641CE4B22846884701E0641CE4B2204665
:102BC0001C214843315CFF29EED1F8BDF8B56B4DAF
:102BD000E868002834D1522304220921694859F7B2
:102BE00009FF0446E8600D202070002666706648E4
:102BF000A080E08007202072A6720120607216205B
:102C0000E072024620460C3060A107465CF774FA79
:102C1000E8682B210E54C07A21462C3110301F2831
:102C200005D8E07A0B21C2195EA3601806E02B20BC
:102C3000005D5CA3421820460B212B3060F76AFC34
:102C4000E868F8BD70B54D4E04468500361D7059D4
:102C5000002816D121020E23042255480A3159F7C3
:102C6000C9FE09210170002C00D000BE7051102156
:102C70008180082141800021C1807D220281418123
:102C80008181705970BD70B53C4EB068002829D163
:102C90003C482C2304220921093859F7ABFE0321B3
:102CA00001700A21B0604170DC2101840025857625
:102CB0000446458010210A305CF737FA2021E1767E
:102CC000A583E5833B486584C08FFB21FB2800D9A1
:102CD00008463849E084403137480988814200D8A5
:102CE00008462085B06870BD3EB500252249009594
:102CF00001950C223431684602955CF7FDF91F48B6
:102D00000C22183069465CF7F7F91C4C0B2224346E
:102D1000227024A1601C5CF7EFF917496584243107
:102D200004205AF766F8002104205AF794F83EBDB3
:102D30004CE710B5FFF74AFF59F777FE0F4900201F
:102D4000C860022104205AF786F810BD10B5044669
:102D5000FFF778FF59F769FE084A0020A100121D0D
:102D6000505010BD10B5FFF78EFF59F75EFE0349B6
:102D70000020886010BD00001C56FC074C8DFC072D
:102D80005457FC070D0D00004C04000003030A1803
:102D90001107595A08E4862A9E8FE911BC7C984392
:102DA0004218000049464D2D46696265722D350076
:102DB0000E0E0000F0BBFC074808000010B51046DE
:102DC0005AF75EF8002802D000BE002010BD012393
:102DD00004220921724859F70DFE0121017059F7AB
:102DE00024FEF2E710B50C780E2C13D008DC012C71
:102DF00012D0032C16D00C2C0CD00D2C08D119E0BD
:102E00000F2C07D0112C05D0122C03D0132C01D07D
:102E100000F0EEFD002010BD4878002805D1FFF736
:102E2000A1FFF7E74878002801D000BEF2E7FFF7DE
:102E3000CCFDEFE7487800F09CFDEBE7F8B51C46C9
:102E400010460E465AF71CF8022802D000BE002099
:102E5000F8BD240A00D000BE0C2027464743514845
:102E60003D18AC70FF2C15D00121E970032104201E
:102E700059F7F1FF4B483188C153707A28713146B8
:102E8000681D06220A315CF737F90122002120462D
:102E900060F72AFB3146204600F03EFDD7E770B5CB
:102EA0000D784C78092D04D0002C00D000BE00F025
:102EB0009FFD002070BD70B51D4610460C4659F7A9
:102EC000DFFF2A0A032802D000BE002070BD0C20BC
:102ED00042433448FF21101881700021C170204600
:102EE00000F04BFDF1E7F0B5087800252E4C89B0D5
:102EF0001F461646002804D0012817D0022827D1E3
:102F000029E06846FFF76DFD68460378324639468A
:102F100020460A3359F76EFD04460570684602786C
:102F2000411C6280201D5CF7E7F82BE069460D80AC
:102F30006846FFF75FFD0A2332463946204659F7B7
:102F400059FD0121017069460988418059F76DFDDD
:102F5000002009B0F0BD0A233946204659F74AFD42
:102F600004466846FFF74AFD022020706846008844
:102F7000608068464088A08068468088E080684617
:102F8000C08820812046E1E7FEB51C46089B0D263F
:102F9000064D6F4668C71346224660F7A9F9FEBD85
:102FA000020D0000648DFC070B0E00005C56FC0750
:102FB000704710B50A23042209210B4859F71AFD5E
:102FC00004461B202070142060F766FB60701420FC
:102FD00060800420A0800020E080FF2174312181E6
:102FE000204659F722FD10BD1B0D0000F8B50E4616
:102FF00009781846002425460B005CF7D1F809062D
:1030000009120915150C180F1B000B241AA512E044
:1030100007241CA50FE008241CA50CE007241EA50E
:1030200009E00A241EA506E00D2420A503E00624DD
:1030300022A500E000BEA31C0146224859F7DAFC95
:103040000746307838707C70002C04D02246294620
:10305000B81C5CF751F8384659F7E7FC0020F8BD7A
:10306000FEB51C46089B0126174D6F4668C71346E0
:10307000224660F73DF9FEBD4469616C6F672053DD
:10308000656D69004441313435333100123456FFE7
:10309000FE9ABCDE0000000001D2008005000100A5
:1030A000312E302E302E302D4C450000765F362EDE
:1030B000302E31342E31313134000000FFEEDDCCC2
:1030C000BBAA000003140000C456FC07052000073B
:1030D0000089000608D501208007006B000403D496
:1030E00003480078C00701D00020704701207047D6
:1030F00054BAFC077047704770B50D460446FFF799
:10310000E5FF002806D06B482A460421201859F70D
:10311000B0FF70BDFDF710FB66480422082311467E
:10312000801E59F767FC4560047059F77EFC70BD3E
:10313000F8B5614C069D06190024002E26D0012EFC
:103140000CD05F4F5D4B3A46283A022E0AD05A49BE
:10315000C91E41180A2927D30120F8BD00F080F8C4
:10316000287039E00878461E092E0DD88000001F0F
:10317000105898422FD1B0003B5813504A68087835
:103180001146FFF7B9FF26E000BE24E04A68002A96
:1031900002D04C48824200D300BE0878454940180E
:1031A000042159F766FF16E04349891E4018C0B252
:1031B000411E0929E8D88600B218803AD16F00294B
:1031C00009D0994207D0404B994204D0D467F219F4
:1031D000803AD46788472C700020F8BD0A46010069
:1031E00010B5384801D0814200D300BE0020344BD6
:1031F000283B84001C59002C04D0401C0A28F8DB12
:10320000002010BD84001A51401C0406240EF7D083
:103210002046FFF771FF204610BD70B50446401EE2
:1032200009281BD82648A10028380D18803DE86FD2
:10323000002813D0244EB04210D01E48042120187C
:1032400059F761FF1B48042208231146401EEE6710
:1032500059F7D0FB047059F7E8FB70BD00BE70BD94
:1032600010B508780C46411E09291FD88200144861
:10327000121F28388258144B9A4205D10022890027
:1032800042502830425012E0890040580B49884291
:103290000DD1042208231146064859F7ABFB2178CB
:1032A00001706168416059F7C0FB00E000BE00207A
:1032B00010BD000003040000FFFBFFFFF730FC0718
:1032C000D48DFC07FCFF3F00F530FC070021154AB8
:1032D00006E0834203D11C20414388187047491CF3
:1032E0001C234B43D35CFF2BF3D10020704710B558
:1032F0001823042209210C4859F77CFB04461B20A3
:103300002070FD2060F7C8F96070FD206080042007
:10331000A0800021E180E1602161A182204659F76F
:1033200084FB10BD5457FC071B0D00003EB51D4625
:10333000069B002400931346019402942A465FF7EB
:10334000D7FF3EBD70B530480022416AD243002904
:1033500001D0114600E00121CB17CC0D5B022343C5
:103360004C02416229490D684E682C4333430C607E
:103370004B604368002B01D0134600E001234360FB
:10338000DC17DB180D6864414E682B4334430B6037
:103390004C608369002B00D101228261D017930E0B
:1033A000800118430C6892014B68224318430A605D
:1033B000486070BD38B5012003252D0201460090FC
:1033C0001D232A460020FDF7CEFF002423462A466F
:1033D000092120460094FDF7C6FF00220F23062195
:1033E00010460094FDF7BFFF38BD10B51B20FDF758
:1033F000DFFE00F09DFDFFF7DDFF0548012182891A
:103400008A430A43828110BD688CFC07608CFC07EC
:103410000003005008B500206A4610708A8868468C
:10342000891D5BF769FE08BD08B500226846027079
:103430008A88891D5BF760FE68460078012805D000
:10344000002802D10921FDF758FF08BD09210020FD
:10345000FDF76EFF08BD10B5887900281CD01C0A46
:10346000FD203FF7B0F9014608230422384859F7F8
:10347000C1FA0C214C433749374A611889780170E9
:10348000132141800221818011880B0A8371C1714F
:10349000491C118059F7C9FA10BD70477047704731
:1034A00010B518460C46014629480823801D59F7D7
:1034B000A1FA21780C225143264A89188978017093
:1034C0006188418000218180817159F7AEFA10BD79
:1034D00010B518460C4601461D480823801D59F7B3
:1034E00089FA21780C2251431A4A89188978017087
:1034F00061884180002181800321817159F795FA0B
:1035000010BD70B50D4614494888401C4880FD2008
:103510003FF759F901460E480A230422C01E59F705
:1035200069FA044628780C2148430A4902224018C7
:103530008078207068886080A28000200649A07191
:10354000891CE01D5BF7D8FD204659F76EFA70BD67
:1035500008FD0000648DFC07FC8DFC07F0B50546F6
:103560008FB017460E461C2001F0A6FD0446E80F5A
:10357000401941108800216001F09EFD60602068C4
:10358000800001F099FDA0602068800001F094FDAA
:10359000E0600421206800F0EBFC20610421206839
:1035A00000F0E6FC60610421206800F0E1FCA0610D
:1035B000304600F099FF05460E46384600F094FF6D
:1035C000F54AF64B00F06AFE2A46334600F0CEFE7E
:1035D00001F0F6FD00F09CFF01460D9000F02FFD7C
:1035E00000250C9070E000F057FF022200F036FF3B
:1035F00006460F46284600F04FFF012200F02EFF3E
:103600000022E74B00F096FDE34AE44B00F046FE53
:1036100032463B4600F0AAFE01F084FD00F078FF40
:1036200000F062FF06460F460D9800F05DFF012294
:1036300000F014FF32463B4600F030FE064605908F
:103640000F4606910C9800F04FFF32463B4604911E
:10365000039000F06FFD0022D14B00F06BFD00F0F5
:1036600057FF064601460C9800F026FD6168AF0042
:10367000C851304600F038FF0646029107917F207E
:10368000C0050C9900F0D3FC00F02EFF012200F0E1
:10369000E5FE3246079B00F069FE00F039FFA168A5
:1036A000C8510299019103A80FC800F0E8FD00225B
:1036B000BC4B00F0EAFD3246019B00F057FE00F0E3
:1036C00027FFE1686D1CC8512068A8428BDC2046AA
:1036D0000FB0F0BDF0B58BB00F460446002647E0B2
:1036E000A069B5004159E068405900F0A8FC02907B
:1036F00060694159A068405900F0A1FC029900F0AE
:1037000045FC394600F042FC216948510A90A16904
:103710000291485900F0E8FE07460591606940595A
:10372000019000F0E1FE012200F098FE0690079162
:103730000A9800F0D9FE079B069A00F0FBFC3A4677
:10374000059B00F0F7FC074605916068405900F0C2
:10375000CBFE3A46059B00F0A1FD00F0D9FE0746DE
:103760000299019848512069616940594851761C75
:103770002068B042B4DC38460BB0F0BD8A4881887E
:10378000491C89B201710A0A4271884A914202D1E8
:10379000002101714171704770B5834C083CE0789D
:1037A000000602D525462D3501E07F4DAD1DFFF702
:1037B000E5FFE07806224006400E40197A495BF7A3
:1037C0009BFC794A63792532104621791F385FF7CF
:1037D000B3FE77497748FFF701FD607070BD10B503
:1037E000714C083C2078FFF7B1FA0020A07010BDA2
:1037F000F0B5B5B0FD203EF7E6FF0146CF23042229
:103800006D4859F7F7F805466C4A6D490420FFF7F3
:10381000A5FE002603AF02906A4803C800900191FC
:103820006846FDF70AFF0120FDF73AFFFDF726FF86
:10383000FDF72AFFFDF7C7FF0446FDF719FF6249B0
:103840004888C005400F062801D9062002E04888B4
:10385000C005400F4988E1228907890F9200491C61
:1038600051434C430A30C440A0B27400385300F0B6
:103870000BFE01460298FFF72DFF00F021FE761C9B
:103880003853642EC8DB08206880C920A880012036
:103890006870C92203A9A81D5BF72EFC284659F7BA
:1038A000C4F8042059F7ECFA032806D147490A2046
:1038B000FFF794FC3C490839C88035B0F0BD70B5BD
:1038C000394D0024083D3848AC7005210170FF21B6
:1038D0004170CD218170AB21C170047144711622F9
:1038E0003BA1801D5BF708FC162028716C71FFF767
:1038F00055F870BD10B52E492E48FFF76FFC2A49C8
:1039000008394870FFF714FA01230622264900F00F
:10391000D1F8FFF70EFA10BD70B50C4605460C2025
:10392000314968434018204E8078083EFF2814D063
:1039300035707078FFF771FC60880838092805D267
:10394000A088002802D1E0887D2808D07D20274962
:10395000C000FFF743FCB07001E0FFF7CBFF21464A
:103960002846FFF724F819490A20FFF737FCF080B2
:1039700070BD442800D1BDE7704710B50A4C083C23
:10398000A078002803D0FFF748FC0020A070FFF7C4
:10399000F5FEFFF7AFFF10BDF1D4C853FB2109407E
:1039A0000000F03F0000F0BF088EFC07FFFF0000A2
:1039B0009937FC07B80B000006FD000000005C42D0
:1039C00000007A445C5CFC0700150050F137FC07EE
:1039D00003030A181107595A08E4862A9E8FE91131
:1039E000BC7C984342180000648DFC07DF37FC075D
:1039F00070B5504C1D46031BA0421FD01FDC4E4B20
:103A0000C3181BD04D4CE34218D10C4649882E29CF
:103A10004BD0484808232946001F58F7EBFF217870
:103A20000C225143464A8918897801706188418087
:103A3000002181808021817158F7F7FF70BD012B33
:103A400008D0042BFAD14B88172B2B462AD0FFF72E
:103A50003FFD70BD4B88102B1CD009DC022B11D010
:103A6000052B13D0092BF4D12B46FFF717FD70BDA2
:103A7000142B03D0172B11D0182BF8D12B46FFF79E
:103A8000EAFC70BD2B46FFF7C5FC70BD2B46FFF767
:103A9000CBFC70BD2B46FFF702FD70BD2B46FFF738
:103AA000FCFC70BDFFF7FCFC70BD2B462146FFF708
:103AB00028FD70BDFEB517460446002B01D01C2022
:103AC00000E01F20E27A2546831A20460C30019040
:103AD00020301C4E20350090BB4209DB01981018A5
:103AE0003A465BF709FBE07AC019E072801F0FE0ED
:103AF000E87A1F22121ABA420CDB009A80183A4662
:103B00005BF7FAFAE87A8021C019E872801F08434F
:103B1000F07000E000BEE27A0A4832710E3001997E
:103B20005BF7EAFAEA7A074872712D3000995BF781
:103B3000E3FAFEBD09FD0000EFF1FFFF0D11FFFFED
:103B4000648DFC07008EFC07F8B5074601200023B2
:103B5000024600901946032045F754FC0446022112
:103B600080300170F64DF5482A6843881146FF31D0
:103B7000F7310B8680884886F248066A0123DB0607
:103B80009E431E430662FF320020FF3238325082CD
:103B90009082D0821D200882EB484884EB48C8827E
:103BA000EB48088300204882384645F76BFF014602
:103BB0002868FF30F730C28B920992010A43C28312
:103BC000E448416800208847002C02D0204645F791
:103BD00002F82046F8BDFFB58BB0064616980027C0
:103BE000022821D00D9801881498814278D37188D9
:103BF000084640383F2802D8159851F7FFFF0C9827
:103C0000361D0088149A80190E995BF775FA0C9886
:103C10000188149808180C9908800D980188149848
:103C2000081A0D9908805CE100200E9D07906978C4
:103C30002C78090221433180E978AC7809022143CC
:103C400071808C46403904242D1D024603468E4661
:103C5000402900D32878614604291FD0052914D0B3
:103C6000062918D070463F283DD8159851F7C6FF51
:103C70000006000E04D0B848008D0006C00F30D0FA
:103C800002230120B54A002712E0697800290FD0ED
:103C9000B34A17230CE0B34A0F2309E0522802D09D
:103CA000D22802D002E0142000E01520AE4A1F23E3
:103CB000002A1AD0984218D2800010580490002888
:103CC00013D000200890059070884038402803D316
:103CD0002878052430716D1C701D00900498B5E0A3
:103CE000FEE03027F0E03327EEE07088042872D140
:103CF0000627E9E0522862D00CDC4B283FD004DCD8
:103D000041286AD0422858D111E04C2820D05028B0
:103D100053D140E0632830D004DC572818D0612804
:103D20004BD19BE06C2864D0772846D109E00098FD
:103D3000297801700098641C401CA4B26D1C00908E
:103D400081E00498401C04900178089881427AD15F
:103D50000098A41C401C41084900881C0090687809
:103D60002A780002104308800599AD1CA4B20029EE
:103D700069D008900020059065E00120FBE7102243
:103D8000294600985BF7B8F9009810341030A4B2B7
:103D90001035009057E02046403014990390884237
:103DA0000BD84022294600985BF7A6F900984030CE
:103DB00000900398403584B245E0342743E0082260
:103DC000294600985BF798F9009808340830A4B2A7
:103DD0000835009037E068E0FFE7062229460098A2
:103DE0005BF78AF90098A41D801DA4B2AD1D009058
:103DF00029E01498001B80B203903088001B001D3E
:103E000081B2012007900498401C04900098401C47
:103E10004008400000900498007857281CD04228A1
:103E2000CBD100980170090A417000982946801C86
:103E30000090039A5BF760F903980399201884B205
:103E40000098401800900498401C049000780028C6
:103E50001ED0002F17D01BE04908E2E71498001B82
:103E600081B200980391401C40084000009001205E
:103E70000A460790294600985BF73EF903996018B7
:103E800084B20098DDE70D990988A14200D331E79B
:103E90000D980088A04208D304990978002904D11C
:103EA0000799002903D1A04201D034270CE00D99D5
:103EB000001B08800C9801880098801B001F0818C0
:103EC0000C99002F08800CD07088042809D006288F
:103ED00007D04038402804D30E984079707100E034
:103EE000342738460FB0F0BDFFB581B01F461646E7
:103EF0000C46104658F7C4FF00257F2802D02189C0
:103F0000062909D03B4632462146019852F709FA64
:103F10000546284605B0F0BDC00601D50225F8E7E4
:103F200020780028F5D1300AA11D3EF792FBF0E77A
:103F30000E490020086070477047000030BCFC0745
:103F40004CB9FC07C000004010800000294100006F
:103F50007671000058BFFC0748BEFC073803F20723
:103F60004003F2079C03F207D803F2070000084061
:103F700010B54843044601F09FF8002805D0002101
:103F8000002C02D0641E0155FAE710BDF8B50246B8
:103F90004A40D40F42004B0052085B089A4202D2BA
:103FA0000246084611464A0023D0C30D4A00DDB23E
:103FB000120EAD1A202D35DA49020126490AF605FE
:103FC0008A19002C00D0524220214F1B1146B940C3
:103FD0002A411018C20D9A4221D0002C17D0012D71
:103FE00008DCDA05801AD20F8019D207DBB200F0A4
:103FF000C6FAF8BDDA05801A012340001B06C01876
:1040000080185A428018CA0F1043490007E0490837
:10401000C2071143DA05801A80194008801800F0A1
:10402000A6FAF8BD61000122511A001BF7E7012230
:10403000D2075140AAE70122D2075040A6E7024624
:1040400070B54A40D30FDB0740002DD04A002AD07C
:10405000010E140E000212020919400A520A8418B5
:10406000E50104465443000A120A2E045043A419E1
:104070004219200CC543AA18120C0125AD03521C8D
:10408000521912047F39240400D0521C104301D469
:104090004000491EC2B20C06C0092018401C40084E
:1040A000802A02D003E0002070BD400840000029B3
:1040B00000DA0020184370BD70B502464A40D50FA3
:1040C00040004A00ED0740085208002814D0002A9A
:1040D00012D0C40DD30D41020120C0055202490A7D
:1040E000520AE41A091812187D34914201D3641C53
:1040F00000E04900002C01DA002070BD002391424D
:1041000001D3891A0343400849000028F7D1002948
:104110000AD0914202D10121C90705E0914201D2A2
:10412000012101E00121C943E005C018401900F058
:104130001EFA70BDF0B507460846584087B0C00F5C
:10414000049048000E46590040084908BC1A8841AE
:1041500005D2384631461E4617460B4602465800E1
:10416000400810434DD0300D039040055900400DDC
:10417000490D0590401A0290402873DA1803012176
:10418000000B09050843019004980092002806D00E
:104190001146019A494200209041009101900298F5
:1041A00040210A1A019900985AF7EAFF05460C4681
:1041B0006B4607CB00F0C8F9C0197141039A0E0D88
:1041C0000023D71756401A467A40164344D0049A23
:1041D000002A2DD0029A012A039A15DC1205C01A72
:1041E000914101263605001C7141D20F059ED20770
:1041F0000093019202962A46234600F006FA07B081
:10420000F0BD38463146FAE71605234A0F46B21884
:10421000C01AB74101210905001C4F4100187F4118
:10422000114618187941E20F10436D19644113E0EB
:10423000E2076D0815436408C2071443039A012678
:104240001205C01A91413605001C7141CE07400885
:1042500030434908C01851412A46234600F0C8F9A6
:10426000CDE7FFE7049801224000C117121A00238E
:104270008B4104983146C417381AA141EEE730B497
:104280000124E407634030BC54E730B40124E40760
:10429000614030BC4EE700000000E0FFF0B51FB405
:1042A00088B00B990998002448400999C00F49002B
:1042B00049080991C0070B990090490049080B91E2
:1042C00009990898A64608431CD00B990A980843F8
:1042D00018D0099801244000420D4800410D09986A
:1042E00024050003000B204309900B980003000BEA
:1042F00020430B9050181C4940180022019014468E
:10430000104605E0002001460DB0F0BD032801DA9B
:10431000034600E003239C46C11A0AAE0AE05F0090
:1043200008ADED5B4F00F75B7D430027AA187C4189
:10433000491C5B1E6145F2DD410004AB5A52210469
:10434000120C0A43240C401C0828DFDB0198029061
:104350000099704601910090059B049A0799069870
:1043600000F053F9D0E700000DFCFFFFF0B50C465C
:104370005C4085B0E40FE40703944C000026640819
:1043800059009446490802460296224321D06246CB
:104390000A431ED06200570D4A000E032303550D39
:1043A000012402462C492405781B1B0B360B4018B0
:1043B00023432643614600901C46501AB44103D360
:1043C0000098401C009002E0921800985B41002881
:1043D00003DA0020014605B0F0BD002001210905E7
:1043E0000746864611E064461D46141BB54106D3B8
:1043F0006546521BB341744607430C43A646CD079E
:1044000040084908284392185B4105460D43EAD10C
:104410001046184313D06046194650407140084377
:1044200006D06046101AB34106D20122002306E0EE
:1044300000220123DB0702E00122D243531000983F
:1044400074460105381C6141029C039D00196941B5
:1044500000F0CEF8BFE70000FD03000070B54B0090
:104460005B0803430BD04B005C0D002633466542CE
:10447000B341D417AD1AA34102DB0020014670BD41
:1044800012053018514170BD10B500229623114617
:1044900000F075F810BD00000EB5C217C10F5040F6
:1044A000CA0740180021054B0293019200910A4669
:1044B0000B4600F0AAF803B000BD00003304000072
:1044C000410040020122400AD205090E80187F29CE
:1044D00001DA00207047962903DC9622511AC84061
:1044E0007047963988407047C20FD2074000400895
:1044F0000BD0C10D0723DB01C91840020905400A92
:104500001143C2084007114370470020014670471D
:10451000CB0FDB07490010B5490802460A4307D014
:104520000A0D07240903E401090B121B002A01DC10
:10453000002010BDC900440F0C43C100E018D20593
:10454000801800F014F810BD10B5202A06DBCB1738
:104550000846203A1041C1170B4306E00B461341B1
:10456000D0402024A21A91400843194610BD0029CA
:1045700004DA401C490001D140084000704770B483
:104580000024050C05D11024000402D1002921D0FB
:104590001124050E01D100020834050F01D10001DC
:1045A000241D850F01D18000A41C002801DB4000E0
:1045B000641C002908D020252E1B0D46F540A14083
:1045C00000D001212943084301061B1B000ADB1D03
:1045D00002D5002070BC7047DB0518188018002930
:1045E000F8DA401C4900F5D170BC40084000704723
:1045F00010B5002B08DA0024401C614192185B4181
:104600001A4301D14008400010BDF0B51FB482B07C
:1046100005460C0003D0084600F08EF802E000F0DA
:104620008BF8203002460090214628465AF7A8FD14
:10463000049B059A04460F4618431143084314D0BF
:10464000184610431BD0009840210A1A18460599B5
:104650005EF7F5FE05460E46009A059904985AF74E
:104660008FFD084305D0012004E02046394607B0FD
:10467000F0BD0020C11705430E432C43374300997A
:104680000E986305401A7905E40A00220C43FD0ADE
:104690000A3002D500200146E9E7010510196941F9
:1046A0000C9C0D9D00196941FFF7A2FFDFE7000098
:1046B000064C0125064E05E0E36807CC2B430C3C75
:1046C00098471034B442F7D3FBF726FDA85EFC07E9
:1046D000C85EFC070EB505490291002100910A460B
:1046E0000B460191FFF791FF03B000BD33040000BA
:1046F00070B5CD0F4A0009030123090B1B051943AF
:104700000B4BED070024520D9A4201DA002070BDD8
:10471000074B34339A4203DC9A1A5EF790FE02E0AC
:104720000449511888402C43F1D0404270BD00002C
:10473000FF030000CDFBFFFF2021020C01D0102160
:104740001046020A01D010460839020901D010466D
:10475000091F820801D01046891E420801D0881E18
:104760007047081A7047F8B5040C8BB2264682B21F
:104770005E430D0C1046370C584336048019002157
:10478000794116466E43370C360480197941264626
:104790006E438919F8BD00004900CA0202431000A7
:1047A00000D004204A0D01D001221043044A490DD3
:1047B000914201D102210843012800D10520704710
:1047C000FF070000F7B596B014460021A160D16044
:1047D000179909914D00CD496D088D4205DC179957
:1047E00061602060002019B0F0BDC949C94E8D42FA
:1047F00038DAD32709997F050029C74A1799334624
:1048000017DDFFF73CFDB54206D0C44AC44BFFF7A5
:1048100036FD6160206009E03A46C14BFFF72FFD8D
:10482000C04AC14BFFF72BFD61602060012019B029
:10483000F0BDFFF77FFCB54206D0B84AB84BFFF792
:1048400079FC6160206009E03A46B54BFFF772FCE5
:10485000B44AB54BFFF76EFC616020600020C04396
:1048600019B0F0BDB1498D42179977DC490049086C
:104870000746AF4AAF4B0491FFF710FD0022AE4B45
:10488000FFF758FCFFF734FF0A90FFF705FEA24A36
:10489000334603910290FFF701FD3A46049BFFF770
:1048A000F4FC06460F469D4A9D4B03990298FFF77C
:1048B000F5FC2A0D01250C9232463B46FFF7E5FC3C
:1048C00061602060032D39D04800410D0C98401ADA
:1048D000690169181139814230DA9849280179440F
:1048E00008960D9008180497436802680399029887
:1048F000FFF7D4FC02460B460791069004990898EE
:10490000FFF7BDFC06460F46049B089AFFF7BDFC67
:10491000079B069AFFF7B3FC0591894904907944F7
:104920000D984018C368826803990298FFF7B6FC97
:10493000059B049AFFF7A3FC6D1CBDE709980028AE
:1049400009DA01226068D207504060600A9819B005
:104950004042F0BD02E00A9819B0F0BD09030122FF
:10496000090B12050E90891817981091400075498F
:10497000400D40184111C006C00E0D91139020212A
:10498000081A149000200690052507901398002817
:104990000D980CD0401982006B48784487581399C1
:1049A0008F40101841681498C1400F4304E040192B
:1049B000810066487844475810993846FFF7D3FE7F
:1049C00006460A9138460E99FFF7CDFE8A190A9BD2
:1049D0008A4201D2012100E00021C9188C46AF00B3
:1049E000694679188B684E68C318834201D201204A
:1049F00000E0002096193618002802D0964202D90D
:104A000003E0964201D2012000E000206246121825
:104A10004E6068468B60C25128466D1E0028B5DC8A
:104A20000121029849074018800F139002980599B8
:104A30008000039E049D0B91FFF72EFD0746304634
:104A40000891FFF747FE1D22D243FFF707FD1090A4
:104A50000F912846FFF73EFE3D22D243FFF7FEFCB2
:104A60000E900D910B98FFF735FE5D22D243FFF7B4
:104A7000F5FC0B910C900D9B0E9AFFF75BFB0F9BC7
:104A8000109AFFF757FB3A46089BFFF753FB0025A8
:104A90000E463A462846089BFFF7F1FB0F9B109AFB
:104AA000FFF7EDFB0D9B0E9AFFF7E9FB0B9B0C9AB2
:104AB000FFF7EBFB264A274BFFF7F0FB07460D916C
:104AC000254A264B31462846FFF7E8FB3A460D9B20
:104AD000FFF730FB0F4615220C9092061D4B314616
:104AE0002846FFF7DBFB3B460C9AFFF723FB179AA0
:104AF000002A05DA139A524213920122D20751403A
:104B000061602060139819B0F0BD0000FB21E93FFF
:104B10007CD90240FB21F93F000040543163621A06
:104B200061B4D03D7370032E8A19A33BFB21394138
:104B300083C8C96D305FE43F0000E03FB61300005A
:104B4000761300000BFCFFFF2A1300001013000077
:104B5000182D4454FB21F93D3326A611460B113C78
:104B6000F0B51FB44E00F9207608800584B00F46DA
:104B7000864204DA0498FFF7BBFD002838D0049A77
:104B80003B4610461946FFF789FB044602462C486F
:104B90000D460B460621784400F05CF822462B4671
:104BA000FFF77CFB019100903946079B069A049819
:104BB000FFF774FB0746029120462946019B009AA5
:104BC000FFF76CFB3A46029BFFF759FB07460022B2
:104BD0000091D24320462946FFF740FC194A9642ED
:104BE0000ADA3A46009BFFF74AFB0022164B23E005
:104BF0000020154909B0F0BD144A964202DD002498
:104C0000134D03E001225205B51A002422462B461B
:104C1000FFF735FB0646019122462B4600200A4944
:104C2000FFF72DFB0D4604463A463046009B01999E
:104C3000FFF725FB22462B46FFF727FB09B0F0BD07
:104C4000CE1000003333D33F0000F03F0000E93FB7
:104C50000000D23FF8B504464F1EC800083821189E
:104C600015461E46086849683A4606239A4310D0FE
:104C70002A463346FFF712FB3A46D200083AA318F9
:104C80001A687F1E5B68FFF755FA06223B4693437E
:104C9000EED1022F23D0042F11D0062F2FD12A4678
:104CA0003346FFF7FBFAE36AA26AFFF743FA2A46A4
:104CB0003346FFF7F3FA636A226AFFF73BFA2A46A4
:104CC0003346FFF7EBFAE369A269FFF733FA2A46A6
:104CD0003346FFF7E3FA63692269FFF72BFA2A46A6
:104CE0003346FFF7DBFAE368A268FFF723FA2A46A8
:104CF0003346FFF7D3FA63682268FFF71BFAF8BD63
:104D0000F0B51FB4054648000C46F9214008890556
:104D100086B088420BDA28462146FFF73DFD04287D
:104D200001D100F0A9F9284621460BB0F0BD2A4672
:104D3000234610461946FFF7B1FA06460F462A46A3
:104D40002346FFF7ABFA00902548019132463B46D7
:104D500005217844FFF77EFF029010980391002808
:104D600029D0204A204B01990098FFF797FA049028
:104D7000059168460FC8FFF791FA00220191009053
:104D8000D24309990898FFF769FB019B009AFFF746
:104D900076FA32463B46FFF781FA099B089AFFF7FD
:104DA0006EFA059B049AFFF76AFA2A462346FFF734
:104DB0006CFA0BB0F0BD0B4630463946029AFFF74D
:104DC0006DFA084A084BFFF7B5F9019B009AFFF707
:104DD00065FA2A462346FFF7ADF90BB0F0BD000097
:104DE0000A100000495555555555C5BFF0B5054643
:104DF0008BB048000F46079140088C4914461E4668
:104E00000990884205DA28463946FFF771FC0028E8
:104E10007ED08749099888421BDB0798002802DA70
:104E2000080747404640834A834B28463946FFF7E8
:104E30002CFA05460F462246334680488049FFF744
:104E40001EFA2A463B46FFF775F9002405460F4631
:104E500026462A463B4610461946FFF71FFA0246E9
:104E60000B4601910090FFF719FA02460890754829
:104E70000B46069106217844FFF7ECFE0290039161
:104E8000714806217844069B089AFFF7E3FE019BD0
:104E9000009AFFF703FA0591049028463946019BD2
:104EA000009AFFF7FBF90890069102A80FC8FFF7D8
:104EB00041F9069B089AFFF7F1F922463346FFF7BE
:104EC00039F9019B009AFFF7E9F922463346FFF7CB
:104ED00031F904460E465D4A5D4B06990898FFF786
:104EE000DDF922463346FFF725F92A463B46039172
:104EF0000290FFF71FF904460E464D490998884273
:104F0000109857DBFFF7C8FA22463346059100E0B8
:104F10002DE00490FFF70EF92246334601910090F0
:104F200010461946FFF7BAF9019B009AFFF71EFADF
:104F3000039B029AFFF7A3F92A463B46FFF7A5F920
:104F40000122FFF78BFA059B049AFFF79EF90446AE
:104F500007980D468017022108400121081AFFF723
:104F60009BFA22462B46FFF799F90BB0F0BD10993A
:104F70000998491C084328430AD0109801280DD0ED
:104F80002A463B4600203349FFF7F0F90BB0F0BD4D
:104F90007B005B082A4600202F49F5E72846394662
:104FA000FFF7FAFB042801D100F066F828463946DD
:104FB0000BB0F0BD012835D00020024600903346EA
:104FC00028463946FFF761F9039B029AFFF75DF91E
:104FD000059104902246334600201E49FFF7C6F98A
:104FE000074600240D4633462046009AFFF756F93F
:104FF0000022194BFFF79EF80646069120462946E7
:10500000059B049AFFF74AF93246069BFFF792F890
:105010003A462B46FFF742F922462B46FFF78AF81D
:105020000BB0F0BD204631460BB0F0BD0000303E65
:105030002894E53F182D4454FB21E93F075C1433C5
:1050400026A6813C0E0F0000300F00006355555519
:105050005555D53F0000F0BF0000F03F10B50122CC
:10506000FFF7FCF910BD002210B51346104611469B
:10507000FFF77CF910BD0000034A10B500201107AE
:10508000FFF7ECF910BD000001FDFFFF02E008C8CA
:10509000121F08C1002AFAD170477047002001E0B2
:1050A00001C1121F002AFBD17047000001490860AE
:1050B00070470000D45EFC07F0B50B30C108C90092
:1050C000144F0026144A0FE003688B420BD38B4227
:1050D00005D95C1A4318456830C3083B00E04368B3
:1050E000136002C004E0021D10680028ECD13046B5
:1050F000002803D13868002801D00020F0BD064AFE
:1051000006481060064A121AD208D20044C0012094
:105110003860D7E7D05EFC07CC5EFC076C5FFC070D
:105120006860FC0700B54A00234B520887B09A42DA
:1051300003DC00221346009229E0204B9A4208D15A
:10514000002808D10120FFF7B1FFFFF78CFF07B05F
:1051500000BD9A4203DBFFF781FF07B000BD02AA42
:10516000FFF730FB8107890F012000290CD00129AE
:1051700011D0022915D002A80FC8FFF7F1FC0122B7
:10518000D207514007B000BD009002A80FC8FFF73A
:10519000B7FD07B000BD02A80FC8FFF7E1FC07B0DC
:1051A00000BD009002A80FC8FFF7AAFD0122D20798
:1051B000514007B000BD0000FB21E93F0000F07F37
:1051C00010B54A00144B5208012486B09A4203DC01
:1051D0000022134600941AE0104B9A4208D100288E
:1051E00008D10120FFF762FFFFF73DFF06B010BDB9
:1051F0009A4203DBFFF732FF06B010BD02AAFFF7A9
:10520000E1FAC007800F201A009002A80FC8FFF72C
:10521000EDFD06B010BD0000FB21E93F0000F07F6E
:10522000F401030070CAEA80D0070640643200002F
:105230002052FC07F08BFC07D520FC077321FC07EC
:1052400093DEF007F1DEF007F9DEF00749DFF00743
:1052500061DFF00777DFF00799DFF00719E3F00768
:10526000BDE5F007FDE3F0071DE4F0073DE4F007BE
:105270007BE4F0078BE4F007F5F9F007B1F7F007EE
:10528000CFF7F007EBF7F00705F8F00719F8F0078C
:1052900097F8F007AFF8F007DFCDF10767D0F10717
:1052A000DBB9F007CD0DF207B10EF207AD0EF20734
:1052B000A90EF2078D21F0079906FC077D1CFC075B
:1052C0008909FC07BB08FC07A508FC07B57EF007A9
:1052D000837DF007493BFC07599EF107634CF107BA
:1052E000FD28FC07D110F2075D29FC07B111F20778
:1052F0004112F2077912F207000000009306FC0742
:105300009506FC07B9C6F007D592F107D73BFC0715
:105310005F9DF1075F9CF107E93EFC07EB72F10727
:10532000B922F1076B04F1076906FC072BA4F0070B
:10533000F1D2F0075FBDF007D5BDF00785BEF007DD
:10534000DB2DF007752EF0071581F007DF7FF007E2
:105350000937F007000000008306FC078B06FC07F6
:105360006B06FC07F3C3F10775C4F1079706FC074A
:10537000CB21FC070000000000000000000000003E
:10538000000000000000000000000000000000001D
:10539000000000000000000000000000000000000D
:1053A00000000000000000000000000000000000FD
:1053B00000000000050000006866FC070004000013
:1053C0005892FC07AC0200004C8EFC070004000061
:1053D0001095FC07700500002003000000A60E00D9
:1053E00004000000D2000000320000003C00000079
:1053F00001000000010000000200000002000000A7
:10540000040000000300000006000000000000008F
:105410000200000002000000000000000000000088
:10542000030000000300000005000000050000006C
:10543000060000000A0000000A000000C80000008A
:10544000B80B000002000000B80B0000B80B000011
:1054500010000000D4010000CC0100007002000028
:105460006A000000040000000100000020000000AD
:105470000A00000001000000E20400008A020000AF
:10548000DC050000AF0000003052FC070000000007
:105490008855FC070056FC073457FC070000000045
:1054A00001040000000000000000000000000000F7
:1054B0003F000000000000002000800000C000004D
:1054C000000084000000282200000000000004000A
:1054D00000F7FFFF7F00000030F0FF0F000000002A
:1054E00000040000000000000000000000000000B8
:1054F0000000000000000000FF0F000001009909FB
:1055000003009909070099090F0099091F109909CB
:105510002F2099095F5199090800049000000000AC
:1055200000000000030005D08B0035F010005CF097
:10553000000010B0000018B000001AB0030051F0D5
:10554000000038B000003AB0000064B0000066B05F
:10555000000022B0000024B0010005D000000000CF
:105560000A00008008030490000004F0030006D045
:10557000000000000A00008008030490000004F00E
:10558000030006D0000000009458FC079858FC0760
:105590009C58FC07CD32FC07130C00004B29F20786
:1055A000150C0000D127FC07170C0000572BF20741
:1055B000000C00002328F20706FD00005728F20720
:1055C00003FD00003728F20708FD0000B328F207AA
:1055D0000EFD00000F29F20705FD0000992BF207D0
:1055E0009855FC070900000014000000ED14F207B4
:1055F000FD0000002126F207FF000000000000006F
:10560000E855FC071C8DFC070200000000004C045C
:105610004C0407010001020304050600FF0000001E
:10562000000000000000000014000000B32FFC0781
:1056300000000000FF00000000000000000000006B
:1056400000000000583FF207A88DFC07040001008D
:10565000000000000000000000000000010D00003C
:10566000BD2DFC07000D0000E52DFC07000E00001D
:105670009F2EFC07010E00003D2EFC07030E0000CC
:10568000B72EFC070A0E0000E72EFC070C0E0000E8
:105690008531F2071C0D0000C731F207100D000024
:1056A0008530F2070F0E0000F931F2072C0E0000D2
:1056B0003932F207120C00005332F207080E0000D4
:1056C0006F32F20702140000ED2FFC071939FC07B6
:1056D0007B39FC070000000000000000CB29FC071C
:1056E000000000007339FC0700000000DB29FC0704
:1056F000000000000000000000000000E329FC079B
:10570000F529FC07FD29FC070F2AFC070000000013
:105710003D2AFC07492AFC070000000000000000A9
:10572000892FFC073131FC076130FC072D33FC0762
:10573000F8000000652DFC07A12AFC07CC56FC07E9
:10574000F139FC072057FC07648DFC0700000000BE
:10575000948DFC07FD0000009C58FC073000000001
:10576000EF32FC0700000000000000000000000015
:10577000FF0000000000000000000000000000002A
:10578000000000000000000000000000595A08E47A
:10579000862A9E8FE911BC7C9843421820EE8D0C1E
:1057A000E1F04A0CB325DC536A68862D4F43313C47
:1057B000939242E6A876FA3BEFB4875A17B96798F6
:1057C0004C664C01963331B1915900152368EC5267
:1057D0001E6244749A1BD18BAB75B66E9EE7BA08F5
:1057E000B9A948ABA1AC031C2E0D296C28D5E1C189
:1057F000E1C54729B55765C3BA47159E8C09E0D165
:10580000815442408E4FD2B377E32A77595A08E445
:10581000862A9E8FE911BC7C7C46421820EE8D0CB6
:10582000E1F04A0CB325DC536A68862C4F43313CC7
:10583000939242E6A876FA3BEFB48759595A08E4A6
:10584000862A9E08E911BC7CD047421817B9679890
:105850004C664C01963331B1915900142368EC52D7
:105860001E6244749A1BD18BAB75B66D28D5E1C10D
:10587000E1C54729B55765C3BA47159DF3D81C45FF
:1058800011964D1213FED63BCC316C6E00280328C6
:1058900002290129001A2130030000008C58FC075E
:1058A0001000000001000000100010008C57FC07E1
:1058B0008E58FC07020000000100000000000000FC
:1058C000000000009C57FC071000000008000200C8
:1058D00001000000000000009258FC0702000000D8
:1058E000010000000D000D00985EFC078E58FC07BB
:1058F00002000000010000000000000000000000A5
:10590000AC57FC0710000000088000000180000078
:10591000000000009258FC07020000000100000097
:1059200009000900705EFC078E58FC0702000000A9
:10593000010000000000000000000000BC57FC0750
:105940001000000001020000C9000000000000007B
:105950009058FC070200000009000200020000004D
:10596000000000009258FC07020000000100000047
:105970000B000B00345EFC078E58FC070200000091
:10598000010000000000000000000000CC57FC07F0
:1059900010000000010000000200000000000000F4
:1059A0009258FC0702000000010000000B000B00F1
:1059B000405EFC078E58FC0702000000010000005A
:1059C0000000000000000000DC57FC071000000091
:1059D0000102000001000000000000009058FC07D8
:1059E00002000000090002000200000000000000A8
:1059F0009258FC0702000000010000000C000C009F
:105A00007C5EFC078E58FC070200000001000000CD
:105A10000000000000000000EC57FC071000000030
:105A20004100000001000000000000009058FC0749
:105A30000200000009000200020000000000000057
:105A40009258FC0702000000010000000C000C004E
:105A50004C5EFC078E58FC070200000001000000AD
:105A60000000000000000000FC57FC0710000000D0
:105A70000902020001000000000000009058FC072D
:105A80000200000009000200020000000000000007
:105A90009258FC0702000000010000000A000A0002
:105AA0008C5EFC078C58FC07100000000100000011
:105AB000100010000C58FC078E58FC070200000074
:105AC0000100000000000000000000001C58FC075E
:105AD000100000000800020001800000000000002B
:105AE0009258FC07020000000100000008000800B6
:105AF000645EFC078E58FC070200000001000000F5
:105B000000000000000000002C58FC0710000000FE
:105B10000880000001000000000000009258FC070F
:105B20000200000001000000110011000C5EFC07E3
:105B30008C58FC0710000000080000001000100046
